:100000000C9434000C9451000C9451000C94510049
:100010000C9451000C9451000C9451000C9451001C
:100020000C9451000C9451000C9451000C9451000C
:100030000C9451000C9451000C9451000C945100FC
:100040000C9451000C9451000C9467020C945100D4
:100050000C9451000C9451000C9451000C945100DC
:100060000C9451000C94510011241FBECFEFD8E026
:10007000DEBFCDBF11E0A0E0B1E0EAEEF9E002C0E2
:1000800005900D92A633B107D9F711E0A6E3B1E0D0
:1000900001C01D92A138B107E1F70E94B7010C948D
:1000A000F3040C9400006F927F928F929F92AF9214
:1000B000BF92DF92EF92FF920F931F93CF93DF9344
:1000C000CDE3D1E038E0D32E10E024E0A22EB12C15
:1000D000AC0EBD1E350191E0E92EF12C80E4882E96
:1000E0008FE1982EE5C08081883018F48AB11AB863
:1000F00002C084B114B83196AE16BF06A1F788814C
:10010000883050F42AB1A70102C0440F551F8A95C8
:10011000E2F7242B2AB90BC024B190E00897A7017D
:1001200002C0440F551F8A95E2F7242B24B9C4015D
:100130000197F1F7A9E3B1E0FD0100E063E070E0B1
:1001400040814830D8F489B19701042E02C0220FB3
:10015000331F0A94E2F790E02823392302C0359533
:1001600027954A95E2F72130310531F5062E02C078
:10017000220F331F0A94E2F7022B1FC023B1842FF2
:1001800090E00897A701082E02C0440F551F0A945B
:10019000E2F730E04223532302C0559547958A95F4
:1001A000E2F74130510541F4062E02C0440F551FBD
:1001B0000A94E2F7042B01C000E0319661507040D0
:1001C00051E0ED33F50709F0BBCF8C91883050F446
:1001D0002BB1A70102C0440F551F8A95E2F7242BCB
:1001E0002BB90BC025B190E00897A70102C0440FBE
:1001F000551F8A95E2F7242B25B9119651E0AD33AE
:10020000B50719F7802F80958295807F8D29883CCE
:1002100069F1893C90F4883839F1893838F48238AA
:1002200099F1843849F18138F1F536C0823C71F199
:10023000843C21F1813CB9F531C0883EC9F0893E4A
:1002400038F4823E29F1843ED9F0813E61F528C020
:10025000823F01F1833F18F4813F29F523C0843F99
:1002600089F0883F01F506C011E31DC012E31BC0F1
:1002700013E319C011E417C014E315C015E313C04C
:1002800016E311C012E40FC017E30DC018E30BC052
:1002900019E309C013E407C01AE205C010E303C064
:1002A00013E201C014E421966C167D0621F0D69469
:1002B000EDE3F1E018CF812FDF91CF911F910F91E6
:1002C000FF90EF90DF90BF90AF909F908F907F90C6
:1002D0006F900895FC0180819181A281B381809308
:1002E0003D0190933E01A0933F01B0934001FB017B
:1002F00080819181A281B3818093390190933A01E9
:10030000A0933B01B0933C0185B78F7E85BFA9E3E5
:10031000B1E0FD018081883018F48AB11AB802C0BA
:1003200084B114B8319661E0ED33F60799F741E0F6
:1003300050E08C91883050F42BB1FA0102C0EE0FDE
:10034000FF1F8A95E2F72E2B2BB90BC025B190E049
:100350000897BA0102C0660F771F8A95E2F7262B2D
:1003600025B9119671E0AD33B70719F70895CF920B
:10037000DF92EF92FF920F931F9360E875E280E0A7
:1003800090E00E9493028EE291E062E371E00E94AD
:100390006A01EE24FF24870101C0CD2C0E94530086
:1003A000D82E8823D1F38C15C1F30E94B6028D2D6F
:1003B00080538A30B0F4C801B7012AE030E040E051
:1003C00050E00E9497042D2D30E0205330407901F9
:1003D0000027F7FC0095102FE60EF71E081F191FC7
:1003E000DCCF83E2D816C9F68DE00E94B602C801C0
:1003F000B7010E942202882319F080E091E002C038
:100400008CE091E00E94BE02C801B7010E94320454
:100410008DE191E00E94BE02C801B7010E94140361
:1004200084E291E00E94BE02C801B7010E947903F4
:100430008BE291E00E94BE02EE24FF24870183E25A
:10044000C82EACCF6F927F928F929F92AF92BF9245
:10045000CF92DF92EF92FF920F931F935B016C019B
:1004600081E0A816B104C104D10419F13501460197
:10047000969487947794679482E0E82EF12C012D6E
:10048000112D10C0C601B501A80197010E94B60444
:10049000611571058105910561F00894E11CF11C5D
:1004A000011D111D6E147F048006910658F781E02E
:1004B00001C080E01F910F91FF90EF90DF90CF90EF
:1004C000BF90AF909F908F907F906F9008951F92F4
:1004D0000F920FB60F9211248F939F93EF93FF9378
:1004E000809138019091C600E82FF0E0EF5BFE4F5D
:1004F00090838F5F80933801809138018F73809350
:10050000380180913601803428F4809136018F5F64
:1005100080933601FF91EF919F918F910F900FBEC5
:100520000F901F9018959B01AC0180E28093C00052
:1005300088E98093C10086E08093C20084E0220FA6
:10054000331F441F551F8A95D1F760E074E284EF92
:1005500090E00E94B604215030403093C5002093B3
:10056000C40078940895809136010895982F809161
:10057000C00085FFFCCF9093C6000895FC0107C022
:100580008091C00085FFFCCF9093C600319690818A
:100590009923B1F708959C01F9012F5F3F4F949182
:1005A000992339F08091C00085FFFCCF9093C6005D
:1005B000F3CF089580913601882311F4EFEF14C032
:1005C00080913701E82FF0E0EF5BFE4FE0818F5F15
:1005D00080933701809137018F7380933701809129
:1005E00036018150809336018E2F0895EF92FF924D
:1005F0001F93CF93DF937C0110E006C00E94DA02C4
:10060000CE0DDF1D88831F5F80913601C12FD0E0A2
:100610008823A1F7CE0DDF1D1882812FDF91CF91A6
:100620001F91FF90EF900895AF92BF92CF92DF920B
:10063000EF92FF920F931F93DF93CF93CDB7DEB767
:10064000C054D0400FB6F894DEBF0FBECDBF7B01C3
:100650008C015E010894A11CB11C650118C0C80181
:10066000B7012AE030E040E050E00E94D804605D2D
:10067000F60161936F01C801B7012AE030E040E064
:1006800050E00E94D804C901DA017C018D012C2DB3
:100690002A19E114F1040105110509F72150822FEF
:1006A000992787FD90952F5FFE013196E80FF91F7E
:1006B000AF01421B510908C020818091C00085FF15
:1006C000FCCF2093C6003197E417F507A9F7C05C6B
:1006D000DF4F0FB6F894DEBF0FBECDBFCF91DF91D5
:1006E0001F910F91FF90EF90DF90CF90BF90AF9050
:1006F00008954F925F926F927F928F929F92AF92E6
:10070000BF92CF92DF92EF92FF920F931F93DF93EE
:10071000CF93CDB7DEB7C054D0400FB6F894DEBF4C
:100720000FBECDBF6B017C015E010894A11CB11C02
:10073000850163E4462E55E4552E44E4642E36E4E8
:10074000732E21E4822E92E4992E53C0C701B60184
:1007500020E130E040E050E00E94D8049B01AC0171
:100760002C3031054105510531F12D303105410560
:1007700051055CF42A30310541055105B1F02B30AB
:1007800031054105510519F513C02E3031054105DC
:100790005105B9F02E303105410551057CF02F305F
:1007A00031054105510599F40FC0F801808213C04D
:1007B000F801908210C0F80140820DC0F8016082FB
:1007C0000AC0F801508207C0F801708204C0822F6D
:1007D000805DF8018083C701B60120E130E040E090
:1007E00050E00E94D804C901DA016C017D010F5F5D
:1007F0001F4F202F2A19C114D104E104F10409F07C
:10080000A5CF2150822F992787FD90952F5FFE015C
:100810003196E80FF91FAF01421B510908C0208132
:100820008091C00085FFFCCF2093C6003197E4176C
:10083000F507A9F7C05CDF4F0FB6F894DEBF0FBE17
:10084000CDBFCF91DF911F910F91FF90EF90DF907F
:10085000CF90BF90AF909F908F907F906F905F9060
:100860004F900895AF92BF92CF92DF92EF92FF9296
:100870000F931F93DF93CF93CDB7DEB7C054D04013
:100880000FB6F894DEBF0FBECDBF7B018C015E01B9
:100890000894A11CB11C650118C0C801B70122E071
:1008A00030E040E050E00E94D804605DF6016193C2
:1008B0006F01C801B70122E030E040E050E00E9443
:1008C000D804C901DA017C018D012C2D2A19E1140B
:1008D000F1040105110509F72150822F992787FDA1
:1008E00090952F5FFE013196E80FF91FAF01421B73
:1008F000510908C020818091C00085FFFCCF209362
:10090000C6003197E417F507A9F7C05CDF4F0FB6B3
:10091000F894DEBF0FBECDBFCF91DF911F910F9135
:10092000FF90EF90DF90CF90BF90AF900895629FBF
:10093000D001739FF001829FE00DF11D649FE00DD7
:10094000F11D929FF00D839FF00D749FF00D659F38
:10095000F00D9927729FB00DE11DF91F639FB00D37
:10096000E11DF91FBD01CF0111240895A1E21A2E46
:10097000AA1BBB1BFD010DC0AA1FBB1FEE1FFF1F43
:10098000A217B307E407F50720F0A21BB30BE40B93
:10099000F50B661F771F881F991F1A9469F76095DA
:1009A0007095809590959B01AC01BD01CF01089594
:1009B00097FB092E05260ED057FD04D0D7DF0AD0AD
:1009C000001C38F450954095309521953F4F4F4F7E
:1009D0005F4F0895F6F790958095709561957F4FDC
:0A09E0008F4F9F4F0895F894FFCF4A
:1009EA0070726F73742C2062696E3A006E696A6560
:1009FA002070726F73742C2062696E3A002C206426
:100A0A0065633A002C206865783A000D0D000B0AE0
:060A1A00090807060504AF
:00000001FF
