:100000000C9434000C9451000C9451000C94510049
:100010000C9451000C9451000C9451000C9451001C
:100020000C9451000C9451000C9451000C9451000C
:100030000C9451000C9451000C9451000C945100FC
:100040000C9451000C9451000C9496020C945100A5
:100050000C9451000C9451000C9451000C945100DC
:100060000C9451000C94510011241FBECFEFD8E026
:10007000DEBFCDBF12E0A0E0B1E0EEECF6E002C0E2
:1000800005900D92AC3DB107D9F713E0ACEDB2E0AD
:1000900001C01D92A732B107E1F70E94D4010C9470
:1000A00065030C9400001F93182F392FDA01621793
:1000B000A1F4282FF90170E06150704006C09081D2
:1000C0008C91981751F4319611968E2F811B90E0E8
:1000D00086179707A1F781E001C080E01F9108957E
:1000E0006F927F928F929F92AF92BF92DF92EF9228
:1000F000FF920F931F93CF93DF93C3EED2E038E0CC
:10010000D32E10E024E0A22EB12CAC0EBD1E350182
:1001100091E0E92EF12C80E4882E8FE1982EE5C045
:100120008081883018F48AB11AB802C084B114B83A
:100130003196AE16BF06A1F78881883050F42AB1F7
:10014000A70102C0440F551F8A95E2F7242B2AB954
:100150000BC024B190E00897A70102C0440F551FBF
:100160008A95E2F7242B24B9C4010197F1F7AFED8A
:10017000B2E0FD0100E063E070E040814830D8F477
:1001800089B19701042E02C0220F331F0A94E2F7AF
:1001900090E02823392302C0359527954A95E2F748
:1001A0002130310531F5062E02C0220F331F0A948B
:1001B000E2F7022B1FC023B1842F90E00897A7011C
:1001C000082E02C0440F551F0A94E2F730E0422384
:1001D000532302C0559547958A95E2F74130510562
:1001E00041F4062E02C0440F551F0A94E2F7042B77
:1001F00001C000E031966150704052E0E33EF507E7
:1002000009F0BBCF8C91883050F42BB1A70102C00C
:10021000440F551F8A95E2F7242B2BB90BC025B14B
:1002200090E00897A70102C0440F551F8A95E2F796
:10023000242B25B9119652E0A33EB50719F7802F5C
:1002400080958295807F8D29883C69F1893C90F466
:10025000883839F1893838F4823899F1843849F18D
:100260008138F1F536C0823C71F1843C21F1813C4A
:10027000B9F531C0883EC9F0893E38F4823E29F193
:10028000843ED9F0813E61F528C0823F01F1833F71
:1002900018F4813F29F523C0843F89F0883F01F598
:1002A00006C011E31DC012E31BC013E319C011E423
:1002B00017C014E315C015E313C016E311C012E410
:1002C0000FC017E30DC018E30BC019E309C013E416
:1002D00007C01AE205C010E303C013E201C014E432
:1002E00021966C167D0621F0D694E3EEF2E018CF4D
:1002F000812FDF91CF911F910F91FF90EF90DF90B1
:10030000BF90AF909F908F907F906F900895FC0169
:1003100080819181A281B3818093E3029093E40272
:10032000A093E502B093E602FB0180819181A28156
:10033000B3818093DF029093E002A093E102B09337
:10034000E20285B78F7E85BFAFEDB2E0FD0180810F
:10035000883018F48AB11AB802C084B114B8319642
:1003600062E0E33EF60799F741E050E08C91883077
:1003700050F42BB1FA0102C0EE0FFF1F8A95E2F78D
:100380002E2B2BB90BC025B190E00897BA0102C003
:10039000660F771F8A95E2F7262B25B9119672E032
:1003A000A33EB70719F708954F925F927F928F92FD
:1003B0009F92AF92BF92CF92DF92EF92FF920F93F4
:1003C0001F93DF93CF93CDB7DEB7C054D0400FB6A5
:1003D000F894DEBF0FBECDBF60E875E280E090E02C
:1003E0000E94C20283ED92E067ED72E00E948701F5
:1003F000EE2455E0752EBB2440E9442E41E0542EF6
:100400004E010894811C911C31E2C32ED12CCC0EDC
:10041000DD1E01C0A02EEE2009F03DC080E091E07D
:100420000E94ED020E94E2028823E1F388EE93E04D
:10043000F2013197F1F70197D9F7C4010E94250322
:1004400003E911E0FF24D8010D900020E9F711978E
:10045000A01BB10BF40101900020E9F73197E819D6
:10046000F909C8016A2FA4012E2F0E945300882386
:1004700069F4F394005E1F4F85E0F81621F77816B3
:1004800031F488E191E00E94ED0207C07F2C89E3FE
:1004900091E00E94ED02EE24E3940E947000082F88
:1004A000882309F4B7CF8A1509F4B4CF80538A3072
:1004B00048F48AE20E94E502F601EB0DF11D00838B
:1004C000B394A8CF033209F0A5CFF6010190002024
:1004D000E9F78F01015010400C191D09102F8CE510
:1004E00091E00E94ED02872D90E025E0880F991F92
:1004F0002A95E1F78D5C9D4F64E0A601202F0E94B4
:100500005300882331F08FE591E00E94ED02F6015F
:1005100004C088E791E0F9CF11928E2F8C198117D2
:10052000D9F783E2A82EEE24BB2478CF1F920F9236
:100530000FB60F9211248F939F93EF93FF938091A7
:10054000DE029091C600E82FF0E0E951FD4F908364
:100550008F5F8093DE028091DE028F738093DE02D4
:100560008091DC02803428F48091DC028F5F8093DC
:10057000DC02FF91EF919F918F910F900FBE0F9032
:100580001F9018959B01AC0180E28093C00088E920
:100590008093C10086E08093C20084E0220F331F65
:1005A000441F551F8A95D1F760E074E284EF90E014
:1005B0000E944303215030403093C5002093C40073
:1005C000789408958091DC020895982F8091C0005E
:1005D00085FFFCCF9093C6000895FC0107C0809171
:1005E000C00085FFFCCF9093C6003196908199237F
:1005F000B1F708959C01F9012F5F3F4F9491992322
:1006000039F08091C00085FFFCCF9093C600F3CFF6
:1006100008958091DC02882311F4EFEF14C08091DB
:10062000DD02E82FF0E0E951FD4FE0818F5F80931C
:10063000DD028091DD028F738093DD028091DC0208
:1006400081508093DC028E2F0895EF92FF921F93CA
:10065000CF93DF937C0110E006C00E940903CE0D0A
:10066000DF1D88831F5F8091DC02C12FD0E08823CB
:10067000A1F7CE0DDF1D1882812FDF91CF911F9141
:10068000FF90EF900895A1E21A2EAA1BBB1BFD015B
:100690000DC0AA1FBB1FEE1FFF1FA217B307E40761
:1006A000F50720F0A21BB30BE40BF50B661F771FB9
:1006B000881F991F1A9469F7609570958095909599
:0E06C0009B01AC01BD01CF010895F894FFCF5E
:1006CE00556E657369746520696D65206920707259
:1006DE00657A696D653A20000D4B6F7269736E69AC
:1006EE006B207365206E65206E616C617A69207572
:1006FE002062617A69210D0D000D4B6F7269736E68
:10070E00696B2070726F6E61646A656E2120556E22
:10071E0065736974652070696E3A2000230D00556B
:10072E006E6574692050494E206A65206973707237
:10073E006176616E210D0D00556E6574692050490C
:10074E004E206E696A6520697370726176616E21E2
:10075E000D0D004D61726B6F204D61726B6F76697E
:10076E006300000000000000000000000000000018
:10077E000000004D696C6F73204D696C6F73657668
:10078E00696300000000000000000000000000008F
:10079E00000000506574617220506574726F766946
:1007AE0063000000000000000000000000000000D8
:1007BE000000004A6F76616E204A6F76616E6F762A
:1007CE00696300000000000000000000000000004F
:1007DE000000004A616E6B6F204A616E6B6F766926
:1007EE006300000000000000000000000000000098
:1007FE000000003335393500000000000000000015
:10080E0000000000000000000000000000000000DA
:10081E0000000037383937000000000000000000EB
:10082E0000000000000000000000000000000000BA
:10083E0000000035363536000000000000000000D4
:10084E00000000000000000000000000000000009A
:10085E0000000033333733000000000000000000BA
:10086E00000000000000000000000000000000007A
:10087E00000000353131340000000000000000009F
:10088E00000000000000000000000000000000005A
:0C089E000000000B0A0908070605040012
:00000001FF
