:100000000C9434000C9451000C9451000C94510049
:100010000C9451000C9451000C9451000C9451001C
:100020000C9451000C9451000C9451000C9451000C
:100030000C9451000C9451000C9451000C945100FC
:100040000C9451000C9451000C9443020C945100F8
:100050000C9451000C9451000C9451000C945100DC
:100060000C9451000C94510011241FBECFEFD8E026
:10007000DEBFCDBF11E0A0E0B1E0E0E8FDE002C0EE
:1000800005900D92A631B107D9F711E0A6E1B1E0D4
:1000900001C01D92A136B107E1F70E94B7010C948F
:1000A000BE060C9400006F927F928F929F92AF9247
:1000B000BF92DF92EF92FF920F931F93CF93DF9344
:1000C000CDE1D1E038E0D32E10E024E0A22EB12C17
:1000D000AC0EBD1E350191E0E92EF12C80E4882E96
:1000E0008FE1982EE5C08081883018F48AB11AB863
:1000F00002C084B114B83196AE16BF06A1F788814C
:10010000883050F42AB1A70102C0440F551F8A95C8
:10011000E2F7242B2AB90BC024B190E00897A7017D
:1001200002C0440F551F8A95E2F7242B24B9C4015D
:100130000197F1F7A9E1B1E0FD0100E063E070E0B3
:1001400040814830D8F489B19701042E02C0220FB3
:10015000331F0A94E2F790E02823392302C0359533
:1001600027954A95E2F72130310531F5062E02C078
:10017000220F331F0A94E2F7022B1FC023B1842FF2
:1001800090E00897A701082E02C0440F551F0A945B
:10019000E2F730E04223532302C0559547958A95F4
:1001A000E2F74130510541F4062E02C0440F551FBD
:1001B0000A94E2F7042B01C000E0319661507040D0
:1001C00051E0ED31F50709F0BBCF8C91883050F448
:1001D0002BB1A70102C0440F551F8A95E2F7242BCB
:1001E0002BB90BC025B190E00897A70102C0440FBE
:1001F000551F8A95E2F7242B25B9119651E0AD31B0
:10020000B50719F7802F80958295807F8D29883CCE
:1002100069F1893C90F4883839F1893838F48238AA
:1002200099F1843849F18138F1F536C0823C71F199
:10023000843C21F1813CB9F531C0883EC9F0893E4A
:1002400038F4823E29F1843ED9F0813E61F528C020
:10025000823F01F1833F18F4813F29F523C0843F99
:1002600089F0883F01F506C011E31DC012E31BC0F1
:1002700013E319C011E417C014E315C015E313C04C
:1002800016E311C012E40FC017E30DC018E30BC052
:1002900019E309C013E407C01AE205C010E303C064
:1002A00013E201C014E421966C167D0621F0D69469
:1002B000EDE1F1E018CF812FDF91CF911F910F91E8
:1002C000FF90EF90DF90BF90AF909F908F907F90C6
:1002D0006F900895FC0180819181A281B381809308
:1002E0001D0190931E01A0931F01B0932001FB01FB
:1002F00080819181A281B3818093190190931A0129
:10030000A0931B01B0931C0185B78F7E85BFA9E127
:10031000B1E0FD018081883018F48AB11AB802C0BA
:1003200084B114B8319661E0ED31F60799F741E0F8
:1003300050E08C91883050F42BB1FA0102C0EE0FDE
:10034000FF1F8A95E2F72E2B2BB90BC025B190E049
:100350000897BA0102C0660F771F8A95E2F7262B2D
:1003600025B9119671E0AD31B70719F708957F925D
:100370008F929F92AF92BF92CF92DF92EF92FF92B5
:100380000F931F93DF93CF930F92CDB7DEB760E843
:1003900075E280E090E00E946F028EE091E062E101
:1003A00071E00E946A01882499245401CC24DD2440
:1003B000760166C0102F0E945300082F8823D1F3C6
:1003C0008117C1F3E981E13019F0E23099F728C0D3
:1003D00080538A30C8F4802F0E949202C501B40174
:1003E0002AE030E040E050E00E948A03202F30E015
:1003F000205330404901AA2497FCA094BA2C860EC1
:10040000971EA81EB91ED6CF802F8154843090F637
:10041000802F0E949202702E102FF2E0F983CBCF32
:1004200080538A30C8F4802F0E949202C701B6011F
:100430002AE030E040E050E00E948A03202F30E0C4
:10044000205330406901EE24D7FCE094FE2CC60E08
:10045000D71EE81EF91EAECF0A3209F0ABCF8AE2F2
:100460000E949202C501B401A7019601072D0E94C6
:100470003D03882499245401CC24DD2476011AE21A
:1004800081E0898398CF1F920F920FB60F921124AB
:100490008F939F93EF93FF93809118019091C600E3
:1004A000E82FF0E0EF5DFE4F90838F5F809318019F
:1004B000809118018F738093180180911601803408
:1004C00028F4809116018F5F80931601FF91EF91C0
:1004D0009F918F910F900FBE0F901F9018959B01C9
:1004E000AC0180E28093C00088E98093C10086E07F
:1004F0008093C20084E0220F331F441F551F8A954A
:10050000D1F760E074E284EF90E00E94A9032150EB
:1005100030403093C5002093C400789408958091B2
:1005200016010895982F8091C00085FFFCCF90930D
:10053000C6000895FC0107C08091C00085FFFCCF74
:100540009093C600319690819923B1F708959C014C
:10055000F9012F5F3F4F9491992339F08091C000AA
:1005600085FFFCCF9093C600F3CF089580911601CC
:10057000882311F4EFEF14C080911701E82FF0E009
:10058000EF5DFE4FE0818F5F80931701809117012F
:100590008F7380931701809116018150809316010B
:1005A0008E2F0895EF92FF921F93CF93DF937C01DC
:1005B00010E006C00E94B602CE0DDF1D88831F5FCB
:1005C00080911601C12FD0E08823A1F7CE0DDF1D49
:1005D0001882812FDF91CF911F91FF90EF900895A6
:1005E0000F931F93DF93CF93CDB7DEB7C054D040A6
:1005F0000FB6F894DEBF0FBECDBF2DB73EB7285063
:1006000030400FB6F8943EBF0FBE2DBFEDB7FEB71A
:1006100031968E010F5F1F4FADB7BEB712961C9378
:100620000E93119720E031E0338322836483758336
:10063000868397830E94E603F8012DB73EB7285FB3
:100640003F4F0FB6F8943EBF0FBE2DBF07C080913D
:10065000C00085FFFCCF9093C6003196908199230E
:10066000B1F7C05CDF4F0FB6F894DEBF0FBECDBF51
:10067000CF91DF911F910F910895CF92DF92EF926A
:10068000FF920F936B017C01023479F0033418F46C
:10069000013459F505C0033479F0043431F515C03F
:1006A000260F371F481F591F20C0DC01CB01821BBA
:1006B000930BA40BB50B12C0CA01B901A701960197
:1006C0000E948A039B01AC0110C021153105410530
:1006D000510539F00E94CB03C901DA019C01AD013B
:1006E00004C083E091E00E949A028091C00085FFDF
:1006F000FCCF8DE08093C600CA01B9010E94F002D0
:100700008BE091E00E949A020F91FF90EF90DF90B2
:10071000CF900895629FD001739FF001829FE00DFA
:10072000F11D649FE00DF11D929FF00D839FF00D70
:10073000749FF00D659FF00D9927729FB00DE11D1C
:10074000F91F639FB00DE11DF91FBD01CF011124F9
:100750000895A1E21A2EAA1BBB1BFD010DC0AA1F02
:10076000BB1FEE1FFF1FA217B307E407F50720F01A
:10077000A21BB30BE40BF50B661F771F881F991F95
:100780001A9469F760957095809590959B01AC01DE
:10079000BD01CF01089597FB092E05260ED057FD08
:1007A00004D0D7DF0AD0001C38F45095409530951E
:1007B00021953F4F4F4F5F4F0895F6F790958095E5
:1007C000709561957F4F8F4F9F4F0895AEE0B0E0D9
:1007D000ECEEF3E00C9495060D891E8986E08C837F
:1007E0001A8309838FEF9FE79E838D839E01275E87
:1007F0003F4FCE0101966F89788DA9010E940A04AE
:100800002F813885020F131FF80110822E96E4E025
:100810000C94B106ABE0B0E0E0E1F4E00C948706A4
:100820003C012B015A01FC0117821682838181FD54
:1008300003C06FEF7FEFC6C19AE0892E1E010894B6
:10084000211C311CF3012381F20123FD859123FF3B
:1008500081912F01882309F4B2C1853239F423FD37
:10086000859123FF81912F01853229F490E0B30116
:100870000E94FD05E7CF982FFF24EE249924FFE185
:10088000FF15D0F09B3269F09C3228F4903259F079
:10089000933291F40EC09D3249F0903369F441E0F7
:1008A00024C052E0F52A84E0F82A28C098E0F92A0A
:1008B00025C0E0E1FE2A22C0F7FC29C0892F805321
:1008C0008A3070F4F6FE05C0989C902C1124980E86
:1008D00015C0E89CE02C1124E80EF0E2FF2A0EC0BF
:1008E0009E3229F4F6FC6BC140E4F42A07C09C3622
:1008F00019F450E8F52A02C0983649F4F20123FDB4
:10090000959123FF91912F01992309F0B8CF892F59
:100910008554833018F08052833038F444E050E03E
:10092000A40EB51E5FE359830FC0933631F09337A1
:1009300079F0933509F056C020C0F5018081898394
:1009400042E050E0A40EB51E610101E010E012C0CB
:10095000F501C080D180F6FC03C06FEF7FEF02C0CD
:10096000692D70E042E050E0A40EB51EC6010E9461
:10097000F2058C015FE7F52214C0F501C080D1803B
:10098000F6FC03C06FEF7FEF02C0692D70E042E01C
:1009900050E0A40EB51EC6010E94E7058C0150E888
:1009A000F52AF3FE07C01AC080E290E0B3010E946E
:1009B000FD05EA948E2D90E008171907A8F30EC0E4
:1009C000F601F7FC8591F7FE81916F0190E0B3018C
:1009D0000E94FD05E110EA94015010400115110537
:1009E00079F7EAC0943611F0993669F5F7FE08C038
:1009F000F501208131814281538184E090E00AC079
:100A0000F501808191819C01442737FD4095542F49
:100A100082E090E0A80EB91E9FE6F92257FF09C0B8
:100A200050954095309521953F4F4F4F5F4FE0E8EF
:100A3000FE2ACA01B901A1012AE030E00E9429067C
:100A4000D82ED21840C0953729F41F2D1F7E2AE0DA
:100A500030E01DC01F2D197F9F3661F0903720F4C4
:100A6000983509F0ACC00FC0903739F0983709F0CD
:100A7000A6C004C028E030E00AC0106114FD146074
:100A800020E130E004C014FD166020E132E017FFE1
:100A900008C0F501608171818281938144E050E05A
:100AA00008C0F50180819181BC0180E090E042E0C6
:100AB00050E0A40EB51EA1010E942906D82ED2181E
:100AC0008FE7F82EF122F6FE0BC05EEFF522D91467
:100AD00038F4F4FE07C0F2FC05C08FEEF82202C025
:100AE0001D2D01C0192DF4FE0DC0FE01ED0DF11DEF
:100AF0008081803319F499EEF92208C01F5FF2FE5D
:100B000005C003C08F2D867809F01F5F0F2DF3FC01
:100B100014C0F0FE0FC01E1510F09D2C0BC09D2CB4
:100B20009E0C911A1E2D06C080E290E0B3010E9437
:100B3000FD051F5F1E15C0F304C01E1510F4E11A59
:100B400001C0EE2404FF0FC080E390E0B3010E94D7
:100B5000FD0502FF1DC001FD03C088E790E00EC047
:100B600088E590E00BC0802F867891F001FF02C0ED
:100B70008BE201C080E2F7FC8DE290E0B3010E94BD
:100B8000FD0506C080E390E0B3010E94FD059A9444
:100B9000D914C0F3DA94F101ED0DF11D808190E0DC
:100BA000B3010E94FD05DD20A9F706C080E290E0B8
:100BB000B3010E94FD05EA94EE20C1F743CEF30194
:100BC00066817781CB012B96E2E10C94A306FC01B0
:100BD0000590615070400110D8F7809590958E0F68
:100BE0009F1F0895FC016150704001900110D8F7DB
:100BF000809590958E0F9F1F08950F931F93CF930D
:100C0000DF938C01EB018B8181FF1BC082FF0DC044
:100C10002E813F818C819D812817390764F4E881FA
:100C2000F9810193F983E88306C0E885F985802F6F
:100C30000995892B31F48E819F8101969F838E8344
:100C400002C00FEF1FEFC801DF91CF911F910F91ED
:100C50000895FA01AA27283051F1203181F1E89452
:100C60006F936E7F6E5F7F4F8F4F9F4FAF4FB1E09F
:100C70003ED0B4E03CD0670F781F891F9A1FA11D9A
:100C8000680F791F8A1F911DA11D6A0F711D811D9B
:100C9000911DA11D20D009F468943F912AE0269F60
:100CA00011243019305D3193DEF6CF010895462FBF
:100CB0004770405D4193B3E00FD0C9F7F6CF462FA0
:100CC0004F70405D4A3318F0495D31FD4052419309
:100CD00002D0A9F7EACFB4E0A695979587957795C6
:100CE0006795BA95C9F700976105710508959B014D
:100CF000AC010A2E06945795479537952795BA95D6
:100D0000C9F7620F731F841F951FA01D08952F92AE
:100D10003F924F925F926F927F928F929F92AF928B
:100D2000BF92CF92DF92EF92FF920F931F93CF93D8
:100D3000DF93CDB7DEB7CA1BDB0B0FB6F894DEBF6F
:100D40000FBECDBF09942A88398848885F846E8495
:100D50007D848C849B84AA84B984C884DF80EE80DF
:100D6000FD800C811B81AA81B981CE0FD11D0FB6E8
:100D7000F894DEBF0FBECDBFED010895F894FFCF0C
:100D8000256400475245534B4121000D0D000B0ACD
:060D900009080706050436
:00000001FF
