:100000000C9434000C9451000C9451000C94510049
:100010000C9451000C9451000C9451000C9451001C
:100020000C9451000C9451000C9451000C9451000C
:100030000C9451000C9451000C94D5000C94510078
:100040000C9451000C9451000C9481000C945100BC
:100050000C9451000C9451000C9451000C945100DC
:100060000C9451000C94510011241FBECFEFD8E026
:10007000DEBFCDBF11E0A0E0B1E0E4ECFBE002C0E8
:1000800005900D92A833B107D9F711E0A8E3B1E0CC
:1000900001C01D92AD37B107E1F70E9453000C94E7
:1000A000E0050C940000EF92FF920F931F93CF9303
:1000B000DF9360E875E280E090E00E94AD00C0E967
:1000C000D1E080E091E00E94F7000E94EC008823DC
:1000D000E1F388EE93E0FE013197F1F70197D9F74C
:1000E0000E945A017B018C0187E191E00E94F70098
:1000F000C801B7010E945F028BE291E00E94F70005
:10010000E0CF1F920F920FB60F9211248F939F93FF
:10011000EF93FF9380913A019091C600E82FF0E0B1
:10012000E35CFE4F90838F5F80933A0180913A01A8
:100130008F7380933A0180913801803428F4809144
:1001400038018F5F80933801FF91EF919F918F91DC
:100150000F900FBE0F901F9018959B01AC0180E28D
:100160008093C00088E98093C10086E08093C2003C
:1001700084E0220F331F441F551F8A95D1F760E09A
:1001800074E284EF90E00E94CB0221503040309323
:10019000C5002093C40092E094BD83E085BD89EF43
:1001A00087BD90936E00789408951F920F920FB6BA
:1001B0000F9211248F939F9380913B0190913C016A
:1001C000019690933C0180933B019F918F910F90FA
:1001D0000FBE0F901F901895809138010895982FA9
:1001E0008091C00085FFFCCF9093C6000895FC016C
:1001F00007C08091C00085FFFCCF9093C600319668
:1002000090819923B1F708959C01F9012F5F3F4F29
:100210009491992339F08091C00085FFFCCF909391
:10022000C600F3CF089580913801882311F4EFEFD1
:1002300014C080913901E82FF0E0E35CFE4FE081CB
:100240008F5F80933901809139018F7380933901D9
:10025000809138018150809338018E2F0895EF925C
:10026000FF921F93CF93DF937C0110E006C00E94A2
:100270001301CE0DDF1D88831F5F80913801C12FD0
:10028000D0E08823A1F7CE0DDF1D1882812FDF91EA
:10029000CF911F91FF90EF900895809138018823AE
:1002A00011F48FEF0895E0913901F0E0E35CFE4F27
:1002B000808108956F927F928F929F92AF92BF92AA
:1002C000CF92DF92EF92FF920F931F9380913801AC
:1002D000882369F0E0913901F0E0E35CFE4F808112
:1002E0008D3229F40E941301BB24BA9402C0BB24AE
:1002F000B394CC24DD24760119C00E941301082F89
:10030000C701B6012AE030E040E050E00E94AC02B4
:10031000112707FD1095005310406801EE24D7FC0B
:10032000E094FE2CC60ED71EE81EF91E80913801FF
:100330008823A1F0E0913901F0E0E35CFE4F808179
:10034000803364F0809138018823B9F2E09139015B
:10035000F0E0E35CFE4F80818A337CF22B2D332763
:1003600027FD3095432F532FC701B6010E94AC02E1
:100370004B015C010E941301782E80913801882383
:1003800069F0E0913901F0E0E35CFE4F80818D324D
:1003900029F40E94130166246A9402C066246394BF
:1003A000CC24DD24760119C00E941301082FC70157
:1003B000B6012AE030E040E050E00E94AC02112794
:1003C00007FD1095005310406801EE24D7FCE0941F
:1003D000FE2CC60ED71EE81EF91E80913801882318
:1003E000A1F0E0913901F0E0E35CFE4F80818033C1
:1003F00064F0809138018823B9F2E0913901F0E08E
:10040000E35CFE4F80818A337CF2262D332727FD63
:100410003095432F532FC701B6010E94AC027B01D8
:100420008C018BE2781669F0871524F08AE2781641
:1004300099F515C08DE2781659F08FE2781661F5BE
:1004400017C0A8019701280D391D4A1D5B1D28C042
:10045000A50194012E193F09400B510B21C0C80181
:10046000B701A50194010E94AC029B01AC0118C028
:10047000E114F1040105110559F0C501B401A80109
:1004800097010E94ED02C901DA019C01AD0108C08B
:100490008DE291E00E94F70020E030E040E050E083
:1004A000B901CA011F910F91FF90EF90DF90CF909B
:1004B000BF90AF909F908F907F906F9008950F9313
:1004C0001F93DF93CF93CDB7DEB7C054D0400FB6A4
:1004D000F894DEBF0FBECDBF2DB73EB728503040D9
:1004E0000FB6F8943EBF0FBE2DBFEDB7FEB73196E5
:1004F0008E010F5F1F4FADB7BEB712961C930E93C0
:10050000119725E331E033832283648375838683E7
:1005100097830E940803F8012DB73EB7285F3F4F2D
:100520000FB6F8943EBF0FBE2DBF07C08091C0002C
:1005300085FFFCCF9093C600319690819923B1F747
:10054000C05CDF4F0FB6F894DEBF0FBECDBFCF91BA
:10055000DF911F910F910895629FD001739FF00169
:10056000829FE00DF11D649FE00DF11D929FF00D43
:10057000839FF00D749FF00D659FF00D9927729F7A
:10058000B00DE11DF91F639FB00DE11DF91FBD0105
:10059000CF0111240895A1E21A2EAA1BBB1BFD0155
:1005A0000DC0AA1FBB1FEE1FFF1FA217B307E40752
:1005B000F50720F0A21BB30BE40BF50B661F771FAA
:1005C000881F991F1A9469F760957095809590958A
:1005D0009B01AC01BD01CF01089597FB092E0526B3
:1005E0000ED057FD04D0D7DF0AD0001C38F4509548
:1005F0004095309521953F4F4F4F5F4F0895F6F747
:1006000090958095709561957F4F8F4F9F4F08957E
:10061000AEE0B0E0EEE0F3E00C94B7050D891E8982
:1006200086E08C831A8309838FEF9FE79E838D83F7
:100630009E01275E3F4FCE0101966F89788DA901FB
:100640000E942C032F813885020F131FF80110829E
:100650002E96E4E00C94D305ABE0B0E0E2E3F3E0E7
:100660000C94A9053C012B015A01FC01178216824A
:10067000838181FD03C06FEF7FEFC6C19AE0892EB1
:100680001E010894211C311CF3012381F20123FD7A
:10069000859123FF81912F01882309F4B2C185320E
:1006A00039F423FD859123FF81912F01853229F4AF
:1006B00090E0B3010E941F05E7CF982FFF24EE249E
:1006C0009924FFE1FF15D0F09B3269F09C3228F4A9
:1006D000903259F0933291F40EC09D3249F090332C
:1006E00069F441E024C052E0F52A84E0F82A28C0E9
:1006F00098E0F92A25C0E0E1FE2A22C0F7FC29C0D3
:10070000892F80538A3070F4F6FE05C0989C902C97
:100710001124980E15C0E89CE02C1124E80EF0E29C
:10072000FF2A0EC09E3229F4F6FC6BC140E4F42A85
:1007300007C09C3619F450E8F52A02C0983649F4EF
:10074000F20123FD959123FF91912F01992309F047
:10075000B8CF892F8554833018F08052833038F415
:1007600044E050E0A40EB51E5FE359830FC09336FA
:1007700031F0933779F0933509F056C020C0F50178
:100780008081898342E050E0A40EB51E610101E042
:1007900010E012C0F501C080D180F6FC03C06FEFFD
:1007A0007FEF02C0692D70E042E050E0A40EB51E5C
:1007B000C6010E9414058C015FE7F52214C0F50103
:1007C000C080D180F6FC03C06FEF7FEF02C0692DBF
:1007D00070E042E050E0A40EB51EC6010E9409057B
:1007E0008C0150E8F52AF3FE07C01AC080E290E0C1
:1007F000B3010E941F05EA948E2D90E00817190797
:10080000A8F30EC0F601F7FC8591F7FE81916F0108
:1008100090E0B3010E941F05E110EA9401501040DE
:100820000115110579F7EAC0943611F0993669F58A
:10083000F7FE08C0F501208131814281538184E0B7
:1008400090E00AC0F501808191819C01442737FD29
:100850004095542F82E090E0A80EB91E9FE6F92241
:1008600057FF09C050954095309521953F4F4F4F08
:100870005F4FE0E8FE2ACA01B901A1012AE030E099
:100880000E944B05D82ED21840C0953729F41F2D51
:100890001F7E2AE030E01DC01F2D197F9F3661F0BA
:1008A000903720F4983509F0ACC00FC0903739F07C
:1008B000983709F0A6C004C028E030E00AC01061F3
:1008C00014FD146020E130E004C014FD166020E146
:1008D00032E017FF08C0F501608171818281938148
:1008E00044E050E008C0F50180819181BC0180E0C6
:1008F00090E042E050E0A40EB51EA1010E944B051D
:10090000D82ED2188FE7F82EF122F6FE0BC05EEF3C
:10091000F522D91438F4F4FE07C0F2FC05C08FEEBE
:10092000F82202C01D2D01C0192DF4FE0DC0FE01DC
:10093000ED0DF11D8081803319F499EEF92208C084
:100940001F5FF2FE05C003C08F2D867809F01F5F80
:100950000F2DF3FC14C0F0FE0FC01E1510F09D2CDF
:100960000BC09D2C9E0C911A1E2D06C080E290E0BB
:10097000B3010E941F051F5F1E15C0F304C01E15A2
:1009800010F4E11A01C0EE2404FF0FC080E390E0F0
:10099000B3010E941F0502FF1DC001FD03C088E7CF
:1009A00090E00EC088E590E00BC0802F867891F033
:1009B00001FF02C08BE201C080E2F7FC8DE290E013
:1009C000B3010E941F0506C080E390E0B3010E94BE
:1009D0001F059A94D914C0F3DA94F101ED0DF11DBD
:1009E000808190E0B3010E941F05DD20A9F706C0B9
:1009F00080E290E0B3010E941F05EA94EE20C1F767
:100A000043CEF30166817781CB012B96E2E10C9412
:100A1000C505FC010590615070400110D8F7809524
:100A200090958E0F9F1F0895FC01615070400190BA
:100A30000110D8F7809590958E0F9F1F08950F9302
:100A40001F93CF93DF938C01EB018B8181FF1BC040
:100A500082FF0DC02E813F818C819D81281739072F
:100A600064F4E881F9810193F983E88306C0E8859D
:100A7000F985802F0995892B31F48E819F8101960C
:100A80009F838E8302C00FEF1FEFC801DF91CF91CC
:100A90001F910F910895FA01AA27283051F12031B2
:100AA00081F1E8946F936E7F6E5F7F4F8F4F9F4F02
:100AB000AF4FB1E03ED0B4E03CD0670F781F891F44
:100AC0009A1FA11D680F791F8A1F911DA11D6A0F12
:100AD000711D811D911DA11D20D009F468943F91C5
:100AE0002AE0269F11243019305D3193DEF6CF01C4
:100AF0000895462F4770405D4193B3E00FD0C9F78A
:100B0000F6CF462F4F70405D4A3318F0495D31FDF6
:100B10004052419302D0A9F7EACFB4E0A695979549
:100B2000879577956795BA95C9F70097610571051F
:100B300008959B01AC010A2E069457954795379569
:100B40002795BA95C9F7620F731F841F951FA01DC3
:100B500008952F923F924F925F926F927F928F9261
:100B60009F92AF92BF92CF92DF92EF92FF920F933C
:100B70001F93CF93DF93CDB7DEB7CA1BDB0B0FB646
:100B8000F894DEBF0FBECDBF09942A883988488803
:100B90005F846E847D848C849B84AA84B984C88499
:100BA000DF80EE80FD800C811B81AA81B981CE0F90
:100BB000D11D0FB6F894DEBF0FBECDBFED01089575
:040BC000F894FFCFD7
:100BC400556E65736974652062726F6A6E69206917
:100BD4007A72617A3A0D00567265646E6F7374208E
:100BE400697A72617A61206A6520000D0047524576
:080BF400534B41210025640070
:00000001FF
