:100000000C9434000C9451000C9451000C94510049
:100010000C9451000C9451000C9451000C9451001C
:100020000C9451000C9451000C9451000C9451000C
:100030000C9451000C9451000C9451000C945100FC
:100040000C9451000C9451000C94DC000C94510061
:100050000C9451000C9451000C9451000C945100DC
:100060000C9451000C94510011241FBECFEFD8E026
:10007000DEBFCDBF11E0A0E0B1E0EAE5F3E002C0F1
:1000800005900D92AA34B107D9F711E0AAE4B1E0C6
:1000900001C01D92AD38B107E1F70E94A1000C9498
:1000A000AB010C940000FF920F931F93DF93CF934B
:1000B000CDB7DEB76A970FB6F894DEBF0FBECDBFDF
:1000C000BC01DE011196AD01CE014B96FA011192F1
:1000D000AF01E817F907D1F719C0FD0121E630E0BB
:1000E000082F112707FD10950217130729F0C901E2
:1000F00080970817190709F4F0822F5F3F4F319658
:100100002B37310589F76F5F7F4F02C0FF24F394CF
:10011000FB018081882309F791E08D919823A41732
:10012000B507D9F7892F911181E06A960FB6F89437
:10013000DEBF0FBECDBFCF91DF911F910F91FF901A
:100140000895EF92FF920F931F93DF93CF93CDB754
:10015000DEB7C054D0400FB6F894DEBF0FBECDBF9F
:1001600060E875E280E090E00E94080180E9E82EF6
:1001700081E0F82E8E010F5F1F4F80E091E00E941A
:1001800033010E9428018823E1F388EE93E0F70110
:100190003197F1F70197D9F7C8010E946B01C801A7
:1001A0000E945300882319F081E191E002C08EE2A1
:1001B00091E00E943301E1CF1F920F920FB60F9290
:1001C00011248F939F93EF93FF9380914C01909113
:1001D000C600E82FF0E0E35BFE4F90838F5F8093D3
:1001E0004C0180914C018F7380934C0180914A01A6
:1001F000803428F480914A018F5F80934A01FF91F7
:10020000EF919F918F910F900FBE0F901F901895B7
:100210009B01AC0180E28093C00088E98093C1001B
:1002200086E08093C20084E0220F331F441F551FD5
:100230008A95D1F760E074E284EF90E00E94890132
:10024000215030403093C5002093C4007894089525
:1002500080914A010895982F8091C00085FFFCCFBE
:100260009093C6000895FC0107C08091C00085FFEF
:10027000FCCF9093C600319690819923B1F70895F1
:100280009C01F9012F5F3F4F9491992339F08091A0
:10029000C00085FFFCCF9093C600F3CF08958091F6
:1002A0004A01882311F4EFEF14C080914B01E82F2D
:1002B000F0E0E35BFE4FE0818F5F80934B01809124
:1002C0004B018F7380934B0180914A018150809341
:1002D0004A018E2F0895EF92FF921F93CF93DF93E1
:1002E0007C0110E006C00E944F01CE0DDF1D888307
:1002F0001F5F80914A01C12FD0E08823A1F7CE0D66
:10030000DF1D1882812FDF91CF911F91FF90EF9019
:100310000895A1E21A2EAA1BBB1BFD010DC0AA1F46
:10032000BB1FEE1FFF1FA217B307E407F50720F05E
:10033000A21BB30BE40BF50B661F771F881F991FD9
:100340001A9469F760957095809590959B01AC0122
:0A035000BD01CF010895F894FFCF1E
:10035A00556E657369746520737472696E673A0DB8
:10036A0000556E65746920737472696E67206A65D8
:10037A007374652070616E6772616D2E0D00556E23
:10038A0065746920737472696E67206E696A652084
:0A039A0070616E6772616D2E0D0038
:00000001FF
