:100000000C9434000C9451000C9451000C94510049
:100010000C9451000C9451000C9451000C9451001C
:100020000C9451000C9451000C9451000C9451000C
:100030000C9451000C9451000C9459010C945100F3
:100040000C9451000C9451000C9405010C94510037
:100050000C9451000C9451000C9451000C945100DC
:100060000C9451000C94510011241FBECFEFD8E026
:10007000DEBFCDBF11E0A0E0B1E0EAE7FBE002C0E7
:1000800005900D92AC33B107D9F711E0ACE3B1E0C4
:1000900001C01D92A138B107E1F70E94D4000C9471
:1000A000BB050C9400008F929F92AF92BF92CF92AB
:1000B000DF92EF92FF920F931F93DF93CF93CDB711
:1000C000DEB78C01ADB6BEB680FF5BC08DB79EB704
:1000D000801B910B0FB6F8949EBF0FBE8DBFEDB77E
:1000E000FEB731964F01DF0181E090E021E007C0CB
:1000F00080FD02C01C9201C02C9301961196081736
:100100001907B4F7C80162E070E00E949A02402F1C
:10011000461B6F0183E0E82EF12C2AC0D60112960F
:100120008C918130F9F4451761F145172CF1D40118
:1001300090E021E030E00BC08C91813029F49F5F8A
:10014000951711F41C9290E02F5F3F4F1196021704
:10015000130794F7842F992787FD9095B7010E9484
:100160009A02461B0894E11CF11C0894C11CD11C86
:100170005E2D0E151F0594F6E00FF11F319780815B
:1001800001C080E00FB6F894BEBE0FBEADBECF91E9
:10019000DF911F910F91FF90EF90DF90CF90BF9074
:1001A000AF909F908F900895EF92FF920F931F93BF
:1001B000CF93DF9360E875E280E090E00E94310128
:1001C000C0E9D1E080E091E00E947B010E947001D3
:1001D0008823E1F388EE93E0FE013197F1F7019770
:1001E000D9F70E94DE017B018C01CB010E945602EF
:1001F000C7010E945300882319F08FE091E002C0EC
:1002000081E291E00E947B01DDCF1F920F920FB639
:100210000F9211248F939F93EF93FF9380913E0150
:100220009091C600E82FF0E0EF5BFE4F90838F5F68
:1002300080933E0180913E018F7380933E018091B7
:100240003C01803428F480913C018F5F80933C0115
:10025000FF91EF919F918F910F900FBE0F901F9084
:1002600018959B01AC0180E28093C00088E98093DF
:10027000C10086E08093C20084E0220F331F441F38
:10028000551F8A95D1F760E074E284EF90E00E94F8
:10029000AD02215030403093C5002093C40092E05D
:1002A00094BD83E085BD89EF87BD90936E007894FF
:1002B00008951F920F920FB60F9211248F939F9360
:1002C00080913F019091400101969093400180936D
:1002D0003F019F918F910F900FBE0F901F90189527
:1002E00080913C010895982F8091C00085FFFCCF3C
:1002F0009093C6000895FC0107C08091C00085FF5F
:10030000FCCF9093C600319690819923B1F7089560
:100310009C01F9012F5F3F4F9491992339F080910F
:10032000C00085FFFCCF9093C600F3CF0895809165
:100330003C01882311F4EFEF14C080913D01E82FB8
:10034000F0E0EF5BFE4FE0818F5F80933D01809195
:100350003D018F7380933D0180913C0181508093DA
:100360003C018E2F0895EF92FF921F93CF93DF935E
:100370007C0110E006C00E949701CE0DDF1D88832E
:100380001F5F80913C01C12FD0E08823A1F7CE0DE3
:10039000DF1D1882812FDF91CF911F91FF90EF9089
:1003A000089580913C01882311F48FEF0895E09126
:1003B0003D01F0E0EF5BFE4F808108951F93CF93E6
:1003C000DF931092400110923F010FC00E949701ED
:1003D000282F80913F0190914001805D974029F442
:1003E00020E030E040E050E05BC080913C01882399
:1003F00069F3E0913D01F0E0EF5BFE4F80818033D7
:100400002CF380913C01882341F0E0913D01F0E024
:10041000EF5BFE4F80818A33CCF62D3211F41FEF53
:1004200001C011E0C0E0D0E012C00E9497019E011F
:1004300043E0220F331F4A95E1F7CC0FDD1FC20FB7
:10044000D31FE097992787FD9095C80FD91F8091FA
:100450003C018823A1F0E0913D01F0E0EF5BFE4F0D
:100460008081803364F080913C018823F1F2E09137
:100470003D01F0E0EF5BFE4F80818A33B4F2812FC3
:10048000992787FD90959C01C29FC001C39F900D45
:10049000D29F900D11249C01442737FD4095542F85
:1004A000B901CA01DF91CF911F9108950F931F9356
:1004B000DF93CF93CDB7DEB7C054D0400FB6F894DA
:1004C000DEBF0FBECDBF00D000D000D0EDB7FEB76D
:1004D00031968E010F5F1F4FADB7BEB712961C93BA
:1004E0000E93119728E331E033832283958384832D
:1004F0000E94E302F8018DB79EB706960FB6F894F6
:100500009EBF0FBE8DBF07C08091C00085FFFCCF8E
:100510009093C600319690819923B1F7C05CDF4F6C
:100520000FB6F894DEBF0FBECDBFCF91DF911F9104
:100530000F91089597FB092E07260AD077FD04D066
:100540002ED006D000201AF4709561957F4F089543
:10055000F6F7909581959F4F0895A1E21A2EAA1B58
:10056000BB1BFD010DC0AA1FBB1FEE1FFF1FA21763
:10057000B307E407F50720F0A21BB30BE40BF50B60
:10058000661F771F881F991F1A9469F760957095E9
:10059000809590959B01AC01BD01CF010895AA1BE8
:1005A000BB1B51E107C0AA1FBB1FA617B70710F05E
:1005B000A61BB70B881F991F5A95A9F78095909590
:1005C000BC01CD010895AEE0B0E0E9EEF2E00C949C
:1005D00092050D891E8986E08C831A8309838FEF2B
:1005E0009FE79E838D839E01275E3F4FCE0101963C
:1005F0006F89788DA9010E9407032F813885020F2A
:10060000131FF80110822E96E4E00C94AE05ABE0C7
:10061000B0E0EDE0F3E00C9484053C012B015A01BD
:10062000FC0117821682838181FD03C06FEF7FEF8B
:10063000C6C19AE0892E1E010894211C311CF301C9
:100640002381F20123FD859123FF81912F018823CE
:1006500009F4B2C1853239F423FD859123FF8191DC
:100660002F01853229F490E0B3010E94FA04E7CF0C
:10067000982FFF24EE249924FFE1FF15D0F09B3240
:1006800069F09C3228F4903259F0933291F40EC004
:100690009D3249F0903369F441E024C052E0F52ADC
:1006A00084E0F82A28C098E0F92A25C0E0E1FE2A73
:1006B00022C0F7FC29C0892F80538A3070F4F6FEDF
:1006C00005C0989C902C1124980E15C0E89CE02C35
:1006D0001124E80EF0E2FF2A0EC09E3229F4F6FC47
:1006E0006BC140E4F42A07C09C3619F450E8F52A9F
:1006F00002C0983649F4F20123FD959123FF9191B0
:100700002F01992309F0B8CF892F8554833018F031
:100710008052833038F444E050E0A40EB51E5FE30D
:1007200059830FC0933631F0933779F0933509F040
:1007300056C020C0F5018081898342E050E0A40EBC
:10074000B51E610101E010E012C0F501C080D1804A
:10075000F6FC03C06FEF7FEF02C0692D70E042E04E
:1007600050E0A40EB51EC6010E94EF048C015FE7A5
:10077000F52214C0F501C080D180F6FC03C06FEFF4
:100780007FEF02C0692D70E042E050E0A40EB51E7C
:10079000C6010E94E4048C0150E8F52AF3FE07C06C
:1007A0001AC080E290E0B3010E94FA04EA948E2D10
:1007B00090E008171907A8F30EC0F601F7FC859121
:1007C000F7FE81916F0190E0B3010E94FA04E110FD
:1007D000EA94015010400115110579F7EAC09436EA
:1007E00011F0993669F5F7FE08C0F50120813181D5
:1007F0004281538184E090E00AC0F50180819181BB
:100800009C01442737FD4095542F82E090E0A80ECC
:10081000B91E9FE6F92257FF09C0509540953095C3
:1008200021953F4F4F4F5F4FE0E8FE2ACA01B901C3
:10083000A1012AE030E00E942605D82ED21840C03F
:10084000953729F41F2D1F7E2AE030E01DC01F2D93
:10085000197F9F3661F0903720F4983509F0ACC0CD
:100860000FC0903739F0983709F0A6C004C028E0CF
:1008700030E00AC0106114FD146020E130E004C0D3
:1008800014FD166020E132E017FF08C0F501608119
:1008900071818281938144E050E008C0F50180813C
:1008A0009181BC0180E090E042E050E0A40EB51ED2
:1008B000A1010E942605D82ED2188FE7F82EF1222A
:1008C000F6FE0BC05EEFF522D91438F4F4FE07C033
:1008D000F2FC05C08FEEF82202C01D2D01C0192DBB
:1008E000F4FE0DC0FE01ED0DF11D8081803319F481
:1008F00099EEF92208C01F5FF2FE05C003C08F2DDC
:10090000867809F01F5F0F2DF3FC14C0F0FE0FC0B6
:100910001E1510F09D2C0BC09D2C9E0C911A1E2DA7
:1009200006C080E290E0B3010E94FA041F5F1E152A
:10093000C0F304C01E1510F4E11A01C0EE2404FF38
:100940000FC080E390E0B3010E94FA0402FF1DC0D3
:1009500001FD03C088E790E00EC088E590E00BC081
:10096000802F867891F001FF02C08BE201C080E207
:10097000F7FC8DE290E0B3010E94FA0406C080E328
:1009800090E0B3010E94FA049A94D914C0F3DA9467
:10099000F101ED0DF11D808190E0B3010E94FA0498
:1009A000DD20A9F706C080E290E0B3010E94FA04BE
:1009B000EA94EE20C1F743CEF30166817781CB0143
:1009C0002B96E2E10C94A005FC010590615070406B
:1009D0000110D8F7809590958E0F9F1F0895FC0108
:1009E0006150704001900110D8F7809590958E0F5E
:1009F0009F1F08950F931F93CF93DF938C01EB01FB
:100A00008B8181FF1BC082FF0DC02E813F818C81B5
:100A10009D812817390764F4E881F9810193F983EE
:100A2000E88306C0E885F985802F0995892B31F484
:100A30008E819F8101969F838E8302C00FEF1FEFEF
:100A4000C801DF91CF911F910F910895FA01AA2754
:100A5000283051F1203181F1E8946F936E7F6E5F01
:100A60007F4F8F4F9F4FAF4FB1E03ED0B4E03CD0AF
:100A7000670F781F891F9A1FA11D680F791F8A1F92
:100A8000911DA11D6A0F711D811D911DA11D20D0F9
:100A900009F468943F912AE0269F11243019305DB3
:100AA0003193DEF6CF010895462F4770405D4193A4
:100AB000B3E00FD0C9F7F6CF462F4F70405D4A33F1
:100AC00018F0495D31FD4052419302D0A9F7EACFB9
:100AD000B4E0A6959795879577956795BA95C9F7E8
:100AE00000976105710508959B01AC010A2E0694DB
:100AF0005795479537952795BA95C9F7620F731F94
:100B0000841F951FA01D08952F923F924F925F92D0
:100B10006F927F928F929F92AF92BF92CF92DF920D
:100B2000EF92FF920F931F93CF93DF93CDB7DEB772
:100B3000CA1BDB0B0FB6F894DEBF0FBECDBF099406
:100B40002A88398848885F846E847D848C849B845D
:100B5000AA84B984C884DF80EE80FD800C811B816B
:100B6000AA81B981CE0FD11D0FB6F894DEBF0FBE9A
:0A0B7000CDBFED010895F894FFCF0A
:100B7A00556E65736974652062726F6A3A0D00205A
:100B8A002D2073726563616E2062726F6A200D0D8B
:100B9A0000202D206E696A652073726563616E207C
:0C0BAA0062726F6A200D0D0025640000CF
:00000001FF
