:100000000C9434000C9451000C9451000C94510049
:100010000C9451000C9451000C9451000C9451001C
:100020000C9451000C9451000C9451000C9451000C
:100030000C9451000C9451000C9451000C945100FC
:100040000C9451000C9451000C9472010C945100CA
:100050000C9451000C9451000C9451000C945100DC
:100060000C9451000C94510011241FBECFEFD8E026
:10007000DEBFCDBF11E0A0E0B1E0E6E8F4E002C0F1
:1000800005900D92A236B107D9F711E0A2E6B1E0D2
:1000900001C01D92A53AB107E1F70E9453000C94EC
:1000A00041020C940000EF92FF920F931F93DF9395
:1000B000CF93CDB7DEB7C054D0400FB6F894DEBFB3
:1000C0000FBECDBF60E875E280E090E00E949E0127
:1000D00080E9E82E81E0F82E8E010F5F1F4F80E04F
:1000E00091E00E94C9010E94BE018823E1F388EEDD
:1000F00093E0F7013197F1F70197D9F7C8010E9412
:10010000010281E191E00E94C901C8010E94C90178
:10011000C8010E94A000882319F087E191E002C085
:100120008BE291E00E94C9018EE391E00E94C90137
:10013000C8010E94C6008DE591E00E94C901CFCFA1
:100140009C01FC0101900020E9F73197E81BF90BB5
:100150008E2F9E2FE7FD9F5F592F5595422FE82F39
:10016000FF27E7FDF0953197E20FF31FC901DC018E
:1001700007C09D9180813197981711F080E0089514
:100180008A2F841B8517ACF381E008952F923F924C
:100190004F925F926F927F928F929F92AF92BF9297
:1001A000CF92DF92EF92FF920F931F93DF93CF9343
:1001B000CDB7DEB7C454D0400FB6F894DEBF0FBE43
:1001C000CDBF7C01DC010D900020E9F7BD0161503D
:1001D0007040681B790B862F992787FD90950197B2
:1001E0005701A80EB91E019640E050E025969FAF3A
:1001F0008EAF259742C090818C91981388244F5FD1
:100200005F4F31961197CA01820F931F861597058C
:1002100094F32F5F3F4F0F5F1F4F8820B1F0F7011E
:10022000E40DF51D9E012F5F3F4FD90181918D9304
:100230008A2F821B8915D1F7CE010196C80ED91ECF
:10024000F60110820E94C90133C0290123968EADA8
:100250009FAD23972817390761F03901620C731C91
:10026000F701E20FF31FD8018824839440E050E0A7
:10027000CACF0894A108B108A901962E941AC1F01A
:10028000892D97FC8F5F8595850120E030E02596CC
:10029000CEACDFAC2597C41AD50ADA0111962396A5
:1002A000BFAFAEAF2397282E332427FC3094CDCF99
:1002B000CC5BDF4F0FB6F894DEBF0FBECDBFCF9142
:1002C000DF911F910F91FF90EF90DF90CF90BF9043
:1002D000AF909F908F907F906F905F904F903F90E6
:1002E0002F9008951F920F920FB60F9211248F93A3
:1002F0009F93EF93FF93809164019091C600E82F44
:10030000F0E0EB59FE4F90838F5F80936401809102
:1003100064018F738093640180916201803428F4BA
:10032000809162018F5F80936201FF91EF919F91B5
:100330008F910F900FBE0F901F9018959B01AC01ED
:1003400080E28093C00088E98093C10086E08093BA
:10035000C20084E0220F331F441F551F8A95D1F736
:1003600060E074E284EF90E00E941F022150304070
:100370003093C5002093C400789408958091620161
:100380000895982F8091C00085FFFCCF9093C60000
:100390000895FC0107C08091C00085FFFCCF9093B9
:1003A000C600319690819923B1F708959C01F90117
:1003B0002F5F3F4F9491992339F08091C00085FFC2
:1003C000FCCF9093C600F3CF0895809162018823FB
:1003D00011F4EFEF14C080916301E82FF0E0EB59C6
:1003E000FE4FE0818F5F80936301809163018F7383
:1003F00080936301809162018150809362018E2F0E
:100400000895EF92FF921F93CF93DF937C0110E04A
:1004100006C00E94E501CE0DDF1D88831F5F80911D
:100420006201C12FD0E08823A1F7CE0DDF1D188215
:10043000812FDF91CF911F91FF90EF900895A1E25E
:100440001A2EAA1BBB1BFD010DC0AA1FBB1FEE1F4E
:10045000FF1FA217B307E407F50720F0A21BB30B99
:10046000E40BF50B661F771F881F991F1A9469F715
:1004700060957095809590959B01AC01BD01CF0171
:060480000895F894FFCF7F
:10048600556E657369746520737472696E673A0D8B
:100496000052656320220022206A6573746520700D
:1004A600616C696E64726F6D2E0D0022206E696A32
:1004B600652070616C696E64726F6D2E0D004E6101
:1004C6006A64757A69206E6A656E20706F64706101
:1004D6006C696E64726F6D206A65202200222E0D93
:0204E600000014
:00000001FF
