:100000000C9434000C9451000C9451000C94510049
:100010000C9451000C9451000C9451000C9451001C
:100020000C9451000C9451000C9451000C9451000C
:100030000C9451000C9451000C945C000C945100F1
:100040000C9451000C9451000C9468030C945100D2
:100050000C9451000C9451000C9451000C945100DC
:100060000C9451000C94510011241FBECFEFD8E026
:10007000DEBFCDBF11E0A0E0B1E0E0E4F0E102C0FE
:1000800005900D92A236B107D9F711E0A2E6B1E0D2
:1000900001C01D92AF3AB107E1F70E94D2020C9461
:1000A0001E080C94000082E084BD93E095BD99EF9A
:1000B00097BD80936E0008951F920F920FB60F9216
:1000C00011248F939F938091650190916601019611
:1000D00090936601809365019F918F910F900FBE61
:1000E0000F901F901895EF92FF920F931F93CF934D
:1000F000DF93E901F701861779F580916501909109
:100100006601805D974044F588819981AA81BB8111
:100110000196A11DB11D88839983AA83BB83808129
:100120009181A281B3810196A11DB11D808391832C
:10013000A283B3830A97A105B105D1F4108211827D
:1001400012821382F80180819181A281B381845649
:100150009040A040B04008C0FA0180819181A28106
:10016000B3810197A109B10980839183A283B383ED
:100170001092660110926501DF91CF911F910F914E
:10018000FF90EF9008958F929F92AF92BF92CF927F
:10019000DF92EF92FF920F931F936C017B015A0144
:1001A000490100E011E0C8010E94BF038EE091E028
:1001B0000E94BF03F70160817181828193810E9457
:1001C00015048DE00E94B703C8010E94BF0383E0BD
:1001D00090E0A0E0B0E0F60180839183A283B38336
:1001E000F701108211821282138280ED97E0A0E065
:1001F000B0E0F50180839183A283B383F401108280
:1002000011821282138210926601109265011F9171
:100210000F91FF90EF90DF90CF90BF90AF909F90A5
:100220008F9008952F923F924F925F926F927F929C
:100230008F929F92AF92BF92CF92DF92EF92FF92F6
:100240000F931F933B014C0119012A0188E191E0B2
:100250000E94BF03C401B3010E94150480E291E033
:100260000E94BF03C201B1010E9415048EE291E019
:100270000E94BF03C801B7010E9415048EE391E0FC
:100280000E94BF03C601B5010E9415048DE00E94C3
:10029000B7031F910F91FF90EF90DF90CF90BF9029
:1002A000AF909F908F907F906F905F904F903F9016
:1002B0002F9008950E94FC0480FF08C00E94FC0457
:1002C0006AE070E00E946204805D08950E94FC0470
:1002D00064E070E00E9462048F5B08956F927F92E9
:1002E0008F929F92AF92BF92DF92EF92FF920F9305
:1002F0001F93CF93DF93CBE6D1E038E0D32E10E00D
:1003000024E0A22EB12CAC0EBD1E350191E0E92EE9
:10031000F12C80E4882E8FE1982EE5C08081883012
:1003200018F48AB11AB802C084B114B83196AE1666
:10033000BF06A1F78881883050F42AB1A70102C016
:10034000440F551F8A95E2F7242B2AB90BC024B11C
:1003500090E00897A70102C0440F551F8A95E2F765
:10036000242B24B9C4010197F1F7A7E6B1E0FD0100
:1003700000E063E070E040814830D8F489B1970133
:10038000042E02C0220F331F0A94E2F790E02823C4
:10039000392302C0359527954A95E2F7213031057A
:1003A00031F5062E02C0220F331F0A94E2F7022B0A
:1003B0001FC023B1842F90E00897A701082E02C028
:1003C000440F551F0A94E2F730E04223532302C042
:1003D000559547958A95E2F74130510541F4062E2F
:1003E00002C0440F551F0A94E2F7042B01C000E03D
:1003F00031966150704051E0EB36F50709F0BBCF04
:100400008C91883050F42BB1A70102C0440F551FC6
:100410008A95E2F7242B2BB90BC025B190E0089701
:10042000A70102C0440F551F8A95E2F7242B25B976
:10043000119651E0AB36B50719F7802F809582955C
:10044000807F8D29883C69F1893C90F4883839F1A6
:10045000893838F4823899F1843849F18138F1F5D6
:1004600036C0823C71F1843C21F1813CB9F531C048
:10047000883EC9F0893E38F4823E29F1843ED9F0A5
:10048000813E61F528C0823F01F1833F18F4813F2E
:1004900029F523C0843F89F0883F01F506C011E3A8
:1004A0001DC012E31BC013E319C011E417C014E30D
:1004B00015C015E313C016E311C012E40FC017E313
:1004C0000DC018E30BC019E309C013E407C01AE21A
:1004D00005C010E303C013E201C014E421966C16BA
:1004E0007D0621F0D694EBE6F1E018CF812FDF9165
:1004F000CF911F910F91FF90EF90DF90BF90AF9041
:100500009F908F907F906F900895FC0180819181E2
:10051000A281B38180936B0190936C01A0936D01D4
:10052000B0936E01FB0180819181A281B3818093A0
:10053000670190936801A0936901B0936A0185B740
:100540008F7E85BFA7E6B1E0FD018081883018F479
:100550008AB11AB802C084B114B8319661E0EB36A2
:10056000F60799F741E050E08C91883050F42BB1B8
:10057000FA0102C0EE0FFF1F8A95E2F72E2B2BB96E
:100580000BC025B190E00897BA0102C0660F771F33
:100590008A95E2F7262B25B9119671E0AB36B7079D
:1005A00019F708952F923F924F925F926F927F9228
:1005B0009F92AF92BF92CF92DF92EF92FF920F93F2
:1005C0001F93DF93CF93CDB7DEB760970FB6F89444
:1005D000DEBF0FBECDBF0E94530060E875E280E031
:1005E00090E00E9494038AE591E06EE571E00E943C
:1005F000850283E090E0A0E0B0E089839A83AB833A
:10060000BC831D821E821F82188680ED97E0A0E0C9
:10061000B0E089879A87AB87BC871D861E861F86B8
:10062000188A80E029E0222E312C2C0E3D1E9DE000
:10063000492E512C4C0E5D1E3E010894611C711C0C
:1006400002C081E09D2C8823D9F469817A818B8155
:100650009C812D813E814F815885E984FA840B85E8
:100660001C85AD84BE84CF84D8880E9412010E946C
:100670005A01C82E0E94B7038DE491E00E94BF0387
:100680000E946E01D82E8823E1F28915D1F20E94D2
:10069000B7038DE00E94B7038C2D6D2DA3019E0141
:1006A0002B5F3F4F810172010E94730089819A8103
:1006B000AB81BC810097A105B10541F4C301BE0126
:1006C0006B5F7F4FA10192010E94C30080E0BACF0F
:1006D0001F920F920FB60F9211248F939F93EF9357
:1006E000FF93809164019091C600E82FF0E0E159FA
:1006F000FE4F90838F5F80936401809164018F73BC
:100700008093640180916201803428F480916201B9
:100710008F5F80936201FF91EF919F918F910F9076
:100720000FBE0F901F9018959B01AC0180E2809343
:10073000C00088E98093C10086E08093C20084E015
:10074000220F331F441F551F8A95D1F760E074E2D2
:1007500084EF90E00E947504215030403093C50032
:100760002093C40078940895809162010895982F91
:100770008091C00085FFFCCF9093C6000895FC01D6
:1007800007C08091C00085FFFCCF9093C6003196D2
:1007900090819923B1F708959C01F9012F5F3F4F94
:1007A0009491992339F08091C00085FFFCCF9093FC
:1007B000C600F3CF089580916201882311F4EFEF12
:1007C00014C080916301E82FF0E0E159FE4FE08111
:1007D0008F5F80936301809163018F7380936301C6
:1007E000809162018150809362018E2F0895EF9273
:1007F000FF921F93CF93DF937C0110E006C00E940D
:10080000DB03CE0DDF1D88831F5F80916201C12F46
:10081000D0E08823A1F7CE0DDF1D1882812FDF9154
:10082000CF911F91FF90EF9008950F931F93DF9347
:10083000CF93CDB7DEB7C054D0400FB6F894DEBF2B
:100840000FBECDBF2DB73EB7285030400FB6F8943D
:100850003EBF0FBE2DBFEDB7FEB731968E010F5FC5
:100860001F4FADB7BEB712961C930E93119723E599
:1008700031E03383228364837583868397830E9468
:100880000C05F8012DB73EB7285F3F4F0FB6F8941F
:100890003EBF0FBE2DBF07C08091C00085FFFCCFBB
:1008A0009093C600319690819923B1F7C05CDF4FD9
:1008B0000FB6F894DEBF0FBECDBFCF91DF911F9171
:1008C0000F91089597FB092E07260AD077FD04D0D3
:1008D0002ED006D000201AF4709561957F4F0895B0
:1008E000F6F7909581959F4F0895A1E21A2EAA1BC5
:1008F000BB1BFD010DC0AA1FBB1FEE1FFF1FA217D0
:10090000B307E407F50720F0A21BB30BE40BF50BCC
:10091000661F771F881F991F1A9469F76095709555
:10092000809590959B01AC01BD01CF010895AA1B54
:10093000BB1B51E107C0AA1FBB1FA617B70710F0CA
:10094000A61BB70B881F991F5A95A9F780959095FC
:10095000BC01CD010895A0E0B0E0E1EBF4E00C941F
:10096000EF07EC01A880B980CA80DB80A114B10434
:10097000C104D10441F484E2A82E89EDB82E8BE5A0
:10098000C82E87E0D82EC601B5012DE133EF41E036
:1009900050E00E94CC0727EA31E440E050E00E949A
:1009A000AD077B018C01C601B5012DE133EF41E0BC
:1009B00050E00E94CC07CA01B9012CEE34EF4FEF92
:1009C0005FEF0E94AD076E0D7F1D801F911F97FF87
:1009D00004C06150704080409048688379838A8366
:1009E0009B839B013F77C901CDB7DEB7EAE00C944A
:1009F0000B080E94AB04089586E591E00E94AB04C9
:100A00000895A0E0B0E08093560190935701A09321
:100A10005801B09359010895AEE0B0E0E2E1F5E08D
:100A20000C94F5070D891E8986E08C831A8309834F
:100A30008FEF9FE79E838D839E01275E3F4FCE0100
:100A400001966F89788DA9010E9430052F81388524
:100A5000020F131FF80110822E96E4E00C94110887
:100A6000ABE0B0E0E6E3F5E00C94E7073C012B01D6
:100A70005A01FC0117821682838181FD03C06FEF4A
:100A80007FEFC6C19AE0892E1E010894211C311CFB
:100A9000F3012381F20123FD859123FF81912F0131
:100AA000882309F4B2C1853239F423FD859123FFEF
:100AB00081912F01853229F490E0B3010E94230730
:100AC000E7CF982FFF24EE249924FFE1FF15D0F003
:100AD0009B3269F09C3228F4903259F0933291F4B1
:100AE0000EC09D3249F0903369F441E024C052E0D9
:100AF000F52A84E0F82A28C098E0F92A25C0E0E128
:100B0000FE2A22C0F7FC29C0892F80538A3070F456
:100B1000F6FE05C0989C902C1124980E15C0E89CF8
:100B2000E02C1124E80EF0E2FF2A0EC09E3229F4D8
:100B3000F6FC6BC140E4F42A07C09C3619F450E877
:100B4000F52A02C0983649F4F20123FD959123FF5E
:100B500091912F01992309F0B8CF892F85548330C3
:100B600018F08052833038F444E050E0A40EB51EF3
:100B70005FE359830FC0933631F0933779F09335A3
:100B800009F056C020C0F5018081898342E050E021
:100B9000A40EB51E610101E010E012C0F501C08095
:100BA000D180F6FC03C06FEF7FEF02C0692D70E0CB
:100BB00042E050E0A40EB51EC6010E9418078C0149
:100BC0005FE7F52214C0F501C080D180F6FC03C0B8
:100BD0006FEF7FEF02C0692D70E042E050E0A40E9D
:100BE000B51EC6010E940D078C0150E8F52AF3FEE0
:100BF00007C01AC080E290E0B3010E942307EA9484
:100C00008E2D90E008171907A8F30EC0F601F7FC27
:100C10008591F7FE81916F0190E0B3010E94230757
:100C2000E110EA94015010400115110579F7EAC06E
:100C3000943611F0993669F5F7FE08C0F501208168
:100C400031814281538184E090E00AC0F5018081C6
:100C500091819C01442737FD4095542F82E090E01C
:100C6000A80EB91E9FE6F92257FF09C0509540957E
:100C7000309521953F4F4F4F5F4FE0E8FE2ACA0164
:100C8000B901A1012AE030E00E944F07D82ED21806
:100C900040C0953729F41F2D1F7E2AE030E01DC08B
:100CA0001F2D197F9F3661F0903720F4983509F099
:100CB000ACC00FC0903739F0983709F0A6C004C017
:100CC00028E030E00AC0106114FD146020E130E03B
:100CD00004C014FD166020E132E017FF08C0F501E2
:100CE000608171818281938144E050E008C0F50108
:100CF00080819181BC0180E090E042E050E0A40E50
:100D0000B51EA1010E944F07D82ED2188FE7F82EEA
:100D1000F122F6FE0BC05EEFF522D91438F4F4FE92
:100D200007C0F2FC05C08FEEF82202C01D2D01C0E5
:100D3000192DF4FE0DC0FE01ED0DF11D80818033F3
:100D400019F499EEF92208C01F5FF2FE05C003C036
:100D50008F2D867809F01F5F0F2DF3FC14C0F0FE75
:100D60000FC01E1510F09D2C0BC09D2C9E0C911ACF
:100D70001E2D06C080E290E0B3010E9423071F5F92
:100D80001E15C0F304C01E1510F4E11A01C0EE24B4
:100D900004FF0FC080E390E0B3010E94230702FF2D
:100DA0001DC001FD03C088E790E00EC088E590E01B
:100DB0000BC0802F867891F001FF02C08BE201C04A
:100DC00080E2F7FC8DE290E0B3010E94230706C0A9
:100DD00080E390E0B3010E9423079A94D914C0F3F2
:100DE000DA94F101ED0DF11D808190E0B3010E94D4
:100DF0002307DD20A9F706C080E290E0B3010E943E
:100E00002307EA94EE20C1F743CEF3016681778190
:100E1000CB012B96E2E10C940308FC010590615094
:100E200070400110D8F7809590958E0F9F1F089500
:100E3000FC016150704001900110D8F780959095A9
:100E40008E0F9F1F08950F931F93CF93DF938C01F5
:100E5000EB018B8181FF1BC082FF0DC02E813F8182
:100E60008C819D812817390764F4E881F981019309
:100E7000F983E88306C0E885F985802F0995892BD9
:100E800031F48E819F8101969F838E8302C00FEF84
:100E90001FEFC801DF91CF911F910F910895FA01C3
:100EA000AA27283051F1203181F1E8946F936E7FA9
:100EB0006E5F7F4F8F4F9F4FAF4FB1E03ED0B4E09A
:100EC0003CD0670F781F891F9A1FA11D680F791FDB
:100ED0008A1F911DA11D6A0F711D811D911DA11DEC
:100EE00020D009F468943F912AE0269F11243019FC
:100EF000305D3193DEF6CF010895462F4770405D97
:100F00004193B3E00FD0C9F7F6CF462F4F70405D45
:100F10004A3318F0495D31FD4052419302D0A9F7A0
:100F2000EACFB4E0A6959795879577956795BA959A
:100F3000C9F700976105710508959B01AC010A2E60
:100F400006945795479537952795BA95C9F7620F37
:100F5000731F841F951FA01D0895629FD001739F6A
:100F6000F001829FE00DF11D649FE00DF11D929F45
:100F7000F00D839FF00D749FF00D659FF00D992784
:100F8000729FB00DE11DF91F639FB00DE11DF91FA8
:100F9000BD01CF011124089597FB092E05260ED01F
:100FA00057FD04D0A2DC0AD0001C38F450954095BF
:100FB000309521953F4F4F4F5F4F0895F6F790952D
:100FC0008095709561957F4F8F4F9F4F08952F9219
:100FD0003F924F925F926F927F928F929F92AF92C9
:100FE000BF92CF92DF92EF92FF920F931F93CF9316
:100FF000DF93CDB7DEB7CA1BDB0B0FB6F894DEBFAD
:101000000FBECDBF09942A88398848885F846E84D2
:101010007D848C849B84AA84B984C884DF80EE801C
:10102000FD800C811B81AA81B981CE0FD11D0FB625
:10103000F894DEBF0FBECDBFED010895F894FFCF49
:101040002D2D2D2D2D2D2D2D2D2D2D2D0D00205007
:101050006F696E74733A20004C697665733A2000AC
:1010600020207C2020506F696E74733A200020206D
:101070007C2020496E74657276616C3A20002020D5
:101080007C2020436F756E7465723A20002020200A
:10109000202000256400010000000B0A0908070653
:0210A000050445
:00000001FF
