:100000000C9434000C9451000C9451000C94510049
:100010000C9451000C9451000C9451000C9451001C
:100020000C9451000C9451000C9451000C9451000C
:100030000C9451000C9451000C9451000C945100FC
:100040000C9451000C9451000C9499000C945100A4
:100050000C9451000C9451000C9451000C945100DC
:100060000C9451000C94510011241FBECFEFD8E026
:10007000DEBFCDBF11E0A0E0B1E0E4EDF2E002C0F0
:1000800005900D92A031B107D9F711E0A0E1B1E0E0
:1000900001C01D92A335B107E1F70E9460000C94E6
:1000A00068010C940000FC0107C0892F81568A3139
:1000B00010F490529083319690819923B1F708956E
:1000C000EF92FF920F931F93DF93CF93CDB7DEB7DD
:1000D000C054D0400FB6F894DEBF0FBECDBF60E86D
:1000E00075E280E090E00E94C50080E9E82E81E0A2
:1000F000F82E8E010F5F1F4F80E091E00E94F0000C
:100100000E94E5008823E1F388EE93E0F701319740
:10011000F1F70197D9F7C8010E942801C8010E9490
:100120005300C8010E94F0008EE091E00E94F000B0
:10013000E3CF1F920F920FB60F9211248F939F93CC
:10014000EF93FF93809112019091C600E82FF0E0A9
:10015000ED5EFE4F90838F5F8093120180911201BC
:100160008F738093120180911001803428F4809164
:1001700010018F5F80931001FF91EF919F918F91FC
:100180000F900FBE0F901F9018959B01AC0180E25D
:100190008093C00088E98093C10086E08093C2000C
:1001A00084E0220F331F441F551F8A95D1F760E06A
:1001B00074E284EF90E00E94460121503040309379
:1001C000C5002093C400789408958091100108958B
:1001D000982F8091C00085FFFCCF9093C6000895B2
:1001E000FC0107C08091C00085FFFCCF9093C60042
:1001F000319690819923B1F708959C01F9012F5F01
:100200003F4F9491992339F08091C00085FFFCCF36
:100210009093C600F3CF089580911001882311F4C4
:10022000EFEF14C080911101E82FF0E0ED5EFE4F7A
:10023000E0818F5F80931101809111018F73809312
:100240001101809110018150809310018E2F08952B
:10025000EF92FF921F93CF93DF937C0110E006C0D3
:100260000E940C01CE0DDF1D88831F5F809110015D
:10027000C12FD0E08823A1F7CE0DDF1D1882812F7A
:10028000DF91CF911F91FF90EF900895A1E21A2E78
:10029000AA1BBB1BFD010DC0AA1FBB1FEE1FFF1F2A
:1002A000A217B307E407F50720F0A21BB30BE40B7A
:1002B000F50B661F771F881F991F1A9469F76095C1
:1002C0007095809590959B01AC01BD01CF0108957B
:0402D000F894FFCFD0
:1002D400556E6573697465207265633A0D000D008F
:00000001FF
