:100000000C9434000C9451000C9451000C94510049
:100010000C9451000C9451000C9451000C9451001C
:100020000C9451000C9451000C9451000C9451000C
:100030000C9451000C9451000C9451000C945100FC
:100040000C9451000C9451000C948D000C945100B0
:100050000C9451000C9451000C9451000C945100DC
:100060000C9451000C94510011241FBECFEFD8E026
:10007000DEBFCDBF11E0A0E0B1E0ECEBF2E002C0EA
:1000800005900D92AE32B107D9F711E0AEE2B1E0C2
:1000900001C01D92A137B107E1F70E9453000C94F3
:1000A0005C010C940000EF92FF920F931F93DF937B
:1000B000CF93CDB7DEB7C054D0400FB6F894DEBFB3
:1000C0000FBECDBF60E875E280E090E00E94B9000D
:1000D00080E9E82E81E0F82E8E010F5F1F4F80E04F
:1000E00091E00E94E4000E94D9008823E1F388EEA9
:1000F00093E0F7013197F1F70197D9F7C8010E9412
:100100001C018EE191E00E94E400C8010E94E4001D
:1001100087E291E00E94E400E2CF1F920F920FB6B7
:100120000F9211248F939F93EF93FF93809130014F
:100130009091C600E82FF0E0EF5CFE4F90838F5F58
:1001400080933001809130018F73809330018091D2
:100150002E01803428F480912E018F5F80932E0130
:10016000FF91EF919F918F910F900FBE0F901F9075
:1001700018959B01AC0180E28093C00088E98093D0
:10018000C10086E08093C20084E0220F331F441F29
:10019000551F8A95D1F760E074E284EF90E00E94E9
:1001A0003A01215030403093C5002093C400789428
:1001B000089580912E010895982F8091C00085FFA9
:1001C000FCCF9093C6000895FC0107C08091C00049
:1001D00085FFFCCF9093C600319690819923B1F7AB
:1001E00008959C01F9012F5F3F4F9491992339F0B5
:1001F0008091C00085FFFCCF9093C600F3CF089597
:1002000080912E01882311F4EFEF14C080912F010B
:10021000E82FF0E0EF5CFE4FE0818F5F80932F01CD
:1002200080912F018F7380932F0180912E01815037
:1002300080932E018E2F0895EF92FF921F93CF93FC
:10024000DF937C0110E006C00E940001CE0DDF1D8F
:1002500088831F5F80912E01C12FD0E08823A1F7F2
:10026000CE0DDF1D1882812FDF91CF911F91FF905E
:10027000EF900895A1E21A2EAA1BBB1BFD010DC031
:10028000AA1FBB1FEE1FFF1FA217B307E407F50746
:1002900020F0A21BB30BE40BF50B661F771F881F22
:1002A000991F1A9469F760957095809590959B01B8
:0C02B000AC01BD01CF010895F894FFCF10
:1002BC00556E65736974652073766F6A6520696D18
:1002CC00652069207072657A696D653A0D005A6413
:0E02DC007261766F2C20002E203A290D000052
:00000001FF
