:100000000C9434000C9451000C9451000C94510049
:100010000C9451000C9451000C9451000C9451001C
:100020000C9451000C9451000C9451000C9451000C
:100030000C9451000C9451000C9451000C945100FC
:100040000C9451000C9451000C94AF020C9451008C
:100050000C9451000C9451000C9451000C945100DC
:100060000C9451000C94510011241FBECFEFD8E026
:10007000DEBFCDBF11E0A0E0B1E0E2EFF8E002C0EA
:1000800005900D92AA33B107D9F711E0AAE3B1E0C8
:1000900001C01D92A538B107E1F70E9404020C943B
:1000A00077040C9400001F93182F392FDA01621780
:1000B000A1F4282FF90170E06150704006C09081D2
:1000C0008C91981751F4319611968E2F811B90E0E8
:1000D00086179707A1F781E001C080E01F9108957E
:1000E000FF920F931F93CF93DF938C010E94F6032F
:1000F00065E070E00E945C0395E0F92EF80EE801DF
:1001000015C00E94F60380FF08C00E94F6036AE053
:1001100070E00E945C03805D07C00E94F60364E00B
:1001200070E00E945C038F5B888321969E01201BF8
:100130002F1539F7DF91CF911F910F91FF900895FF
:100140006F927F928F929F92AF92BF92DF92EF92C7
:10015000FF920F931F93CF93DF93C1E4D1E038E078
:10016000D32E10E024E0A22EB12CAC0EBD1E350122
:1001700091E0E92EF12C80E4882E8FE1982EE5C0E5
:100180008081883018F48AB11AB802C084B114B8DA
:100190003196AE16BF06A1F78881883050F42AB197
:1001A000A70102C0440F551F8A95E2F7242B2AB9F4
:1001B0000BC024B190E00897A70102C0440F551F5F
:1001C0008A95E2F7242B24B9C4010197F1F7ADE336
:1001D000B1E0FD0100E063E070E040814830D8F418
:1001E00089B19701042E02C0220F331F0A94E2F74F
:1001F00090E02823392302C0359527954A95E2F7E8
:100200002130310531F5062E02C0220F331F0A942A
:10021000E2F7022B1FC023B1842F90E00897A701BB
:10022000082E02C0440F551F0A94E2F730E0422323
:10023000532302C0559547958A95E2F74130510501
:1002400041F4062E02C0440F551F0A94E2F7042B16
:1002500001C000E031966150704051E0E134F50793
:1002600009F0BBCF8C91883050F42BB1A70102C0AC
:10027000440F551F8A95E2F7242B2BB90BC025B1EB
:1002800090E00897A70102C0440F551F8A95E2F736
:10029000242B25B9119651E0A134B50719F7802F09
:1002A00080958295807F8D29883C69F1893C90F406
:1002B000883839F1893838F4823899F1843849F12D
:1002C0008138F1F536C0823C71F1843C21F1813CEA
:1002D000B9F531C0883EC9F0893E38F4823E29F133
:1002E000843ED9F0813E61F528C0823F01F1833F11
:1002F00018F4813F29F523C0843F89F0883F01F538
:1003000006C011E31DC012E31BC013E319C011E4C2
:1003100017C014E315C015E313C016E311C012E4AF
:100320000FC017E30DC018E30BC019E309C013E4B5
:1003300007C01AE205C010E303C013E201C014E4D1
:1003400021966C167D0621F0D694E1E4F1E018CFF9
:10035000812FDF91CF911F910F91FF90EF90DF9050
:10036000BF90AF909F908F907F906F900895FC0109
:1003700080819181A281B381809341019093420158
:10038000A0934301B0934401FB0180819181A2813C
:10039000B38180933D0190933E01A0933F01B093C0
:1003A000400185B78F7E85BFADE3B1E0FD0180815F
:1003B000883018F48AB11AB802C084B114B83196E2
:1003C00061E0E134F60799F741E050E08C91883024
:1003D00050F42BB1FA0102C0EE0FFF1F8A95E2F72D
:1003E0002E2B2BB90BC025B190E00897BA0102C0A3
:1003F000660F771F8A95E2F7262B25B9119671E0D3
:10040000A134B70719F708954F925F926F927F92C8
:100410008F929F92AF92BF92DF92EF92FF920F93D3
:100420001F93DF93CF93CDB7DEB7C058D0400FB640
:10043000F894DEBF0FBECDBF60E875E280E090E0CB
:100440000E94DB0282E391E066E371E00E94B70163
:100450002E010894411C511C5201CE018F5B9F4F0D
:10046000F50111925F01E817F907D1F7CE018F5717
:100470009F4F1192E817F907E1F710E080E000E0E4
:100480004E010894811C911C91E4692E712C6C0E14
:100490007D1E02C081E01D2D882349F4C4010E9405
:1004A0007000C4010E9406038DE00E94FE020E94BB
:1004B000A000D82E882371F3811761F30E94FE02F9
:1004C000FFE2FD15A0F48D2D90E021E08030920731
:1004D00041F038F0E0E4ED1550F48250914009F01D
:1004E00030F4F301E00FF11DD0820F5FD3CFF401A0
:1004F00001900020E9F77F010894E108F108E8186D
:10050000F908FE2CF30101900020E9F78F0101505A
:10051000104006191709102F8DE00E94FE02C40139
:100520006E2DA301202F0E945300882331F084E018
:1005300091E00E940603F20104C088E191E0F9CF46
:1005400011928E2F84198F15D9F7F50101C01192E0
:100550008E2F8A198117D9F780E000E09CCF1F9277
:100560000F920FB60F9211248F939F93EF93FF93E7
:1005700080913C019091C600E82FF0E0EB5BFE4FCC
:1005800090838F5F80933C0180913C018F738093B7
:100590003C0180913A01803428F480913A018F5FC8
:1005A00080933A01FF91EF919F918F910F900FBE31
:1005B0000F901F9018959B01AC0180E28093C000C2
:1005C00088E98093C10086E08093C20084E0220F16
:1005D000331F441F551F8A95D1F760E074E284EF02
:1005E00090E00E946F03215030403093C50020936B
:1005F000C4007894089580913A010895982F8091CD
:10060000C00085FFFCCF9093C6000895FC0107C091
:100610008091C00085FFFCCF9093C60031969081F9
:100620009923B1F708959C01F9012F5F3F4F9491F1
:10063000992339F08091C00085FFFCCF9093C600CC
:10064000F3CF089580913A01882311F4EFEF14C09D
:1006500080913B01E82FF0E0EB5BFE4FE0818F5F84
:1006600080933B0180913B018F7380933B0180918C
:100670003A01815080933A018E2F0895EF92FF92B4
:100680001F93CF93DF937C0110E006C00E942203EA
:10069000CE0DDF1D88831F5F80913A01C12FD0E00E
:1006A0008823A1F7CE0DDF1D1882812FDF91CF9116
:1006B0001F91FF90EF90089597FB092E07260AD00F
:1006C00077FD04D02ED006D000201AF470956195E5
:1006D0007F4F0895F6F7909581959F4F0895A1E279
:1006E0001A2EAA1BBB1BFD010DC0AA1FBB1FEE1FAC
:1006F000FF1FA217B307E407F50720F0A21BB30BF7
:10070000E40BF50B661F771F881F991F1A9469F772
:1007100060957095809590959B01AC01BD01CF01CE
:100720000895AA1BBB1B51E107C0AA1FBB1FA61738
:10073000B70710F0A61BB70B881F991F5A95A9F78A
:1007400080959095BC01CD010895A0E0B0E0EBEA62
:10075000F3E00C944804EC01A880B980CA80DB80E7
:10076000A114B104C104D10441F484E2A82E89ED9E
:10077000B82E8BE5C82E87E0D82EC601B5012DE135
:1007800033EF41E050E00E94250427EA31E440E0E5
:1007900050E00E9406047B018C01C601B5012DE1E9
:1007A00033EF41E050E00E942504CA01B9012CEE6C
:1007B00034EF4FEF5FEF0E9406046E0D7F1D801F28
:1007C000911F97FF04C0615070408040904868833B
:1007D00079838A839B839B013F77C901CDB7DEB7BD
:1007E000EAE00C9464040E94A50308958EE291E06F
:1007F0000E94A5030895A0E0B0E080932E0190939D
:100800002F01A0933001B09331010895629FD00170
:10081000739FF001829FE00DF11D649FE00DF11DBB
:10082000929FF00D839FF00D749FF00D659FF00D6A
:100830009927729FB00DE11DF91F639FB00DE11D57
:10084000F91FBD01CF011124089597FB092E05263C
:100850000ED057FD04D043DF0AD0001C38F4509569
:100860004095309521953F4F4F4F5F4F0895F6F7D4
:1008700090958095709561957F4F8F4F9F4F08950C
:100880002F923F924F925F926F927F928F929F92A0
:10089000AF92BF92CF92DF92EF92FF920F931F938E
:1008A000CF93DF93CDB7DEB7CA1BDB0B0FB6F8943F
:1008B000DEBF0FBECDBF09942A88398848885F847F
:1008C0006E847D848C849B84AA84B984C884DF80F0
:1008D000EE80FD800C811B81AA81B981CE0FD11DD4
:1008E0000FB6F894DEBF0FBECDBFED010895F894AA
:0208F000FFCF38
:1008F200390044004973707261766E6F20756E65BF
:1009020074206B6F640D0D004E65697370726176B1
:100912006E6F20756E6574206B6F640D0D000100A3
:0A09220000000B0A0908070605048F
:00000001FF
