:100000000C9434000C9451000C9451000C94510049
:100010000C9451000C9451000C9451000C9451001C
:100020000C9451000C9451000C9451000C9451000C
:100030000C9451000C9451000C94A9000C945100A4
:100040000C9451000C9451000C947C030C945100BE
:100050000C9451000C9451000C9451000C945100DC
:100060000C9451000C94510011241FBECFEFD8E026
:10007000DEBFCDBF11E0A0E0B1E0ECE9FAE002C0E4
:1000800005900D92A836B107D9F711E0A8E6B1E0C6
:1000900001C01D92A43CB107E1F70E94BA020C9482
:1000A0004C050C9400001F93182F392FDA016217AA
:1000B000A1F4282FF90170E06150704006C09081D2
:1000C0008C91981751F4319611968E2F811B90E0E8
:1000D00086179707A1F781E001C080E01F9108957E
:1000E000FF920F931F93CF93DF938C010E94CB0459
:1000F00065E070E00E94310495E0F92EF80EE80109
:1001000015C00E94CB0480FF08C00E94CB046AE0A7
:1001100070E00E943104805D07C00E94CB046AE158
:1001200070E00E9431048F59888321969E01201B24
:100130002F1539F7DF91CF911F910F91FF900895FF
:1001400082E084BD93E095BD99EF97BD80936E00EA
:1001500008951F920F920FB60F9211248F939F93C1
:100160008091790190917A01019690937A01809320
:1001700079019F918F910F900FBE0F901F9018954E
:10018000CF92DF92EF92FF920F931F93CF93DF9363
:10019000EB01690180937301E82EFF248701085960
:1001A0001E4FF8018081FB01E80FF11D8081F901EC
:1001B00081839091730180917201981739F4809135
:1001C000790190917A01805D97408CF08701085900
:1001D0001E4FF801108288810E94D303F8018081AC
:1001E000C80FD11D8881F601818310822DC0F801CE
:1001F0002081222359F48091790190917A01805DC8
:10020000974024F488E00E94D30314C030E050E00B
:100210004150504024173507E4F4809179019091C2
:100220007A01805D9740ACF488E00E94D303870197
:1002300008591E4FF8018081C80FD11D88810E9486
:10024000D30381E0F6018083F80180818F5F808392
:100250001CC024173507E9F48091790190917A0147
:10026000805D9740B4F488E00E94D3038701085969
:100270001E4FF8018081C80FD11D88810E94D303D1
:1002800081E3F6018083F801108210927A011092C6
:1002900079018091730180937201DF91CF911F9159
:1002A0000F91FF90EF90DF90CF9008956F927F9223
:1002B0008F929F92AF92BF92DF92EF92FF920F9335
:1002C0001F93CF93DF93C0E8D1E038E0D32E10E046
:1002D00024E0A22EB12CAC0EBD1E350191E0E92E1A
:1002E000F12C80E4882E8FE1982EE5C08081883043
:1002F00018F48AB11AB802C084B114B83196AE1697
:10030000BF06A1F78881883050F42AB1A70102C046
:10031000440F551F8A95E2F7242B2AB90BC024B14C
:1003200090E00897A70102C0440F551F8A95E2F795
:10033000242B24B9C4010197F1F7ACE7B1E0FD012A
:1003400000E063E070E040814830D8F489B1970163
:10035000042E02C0220F331F0A94E2F790E02823F4
:10036000392302C0359527954A95E2F721303105AA
:1003700031F5062E02C0220F331F0A94E2F7022B3A
:100380001FC023B1842F90E00897A701082E02C058
:10039000440F551F0A94E2F730E04223532302C072
:1003A000559547958A95E2F74130510541F4062E5F
:1003B00002C0440F551F0A94E2F7042B01C000E06D
:1003C00031966150704051E0E038F50709F0BBCF3D
:1003D0008C91883050F42BB1A70102C0440F551FF7
:1003E0008A95E2F7242B2BB90BC025B190E0089732
:1003F000A70102C0440F551F8A95E2F7242B25B9A7
:10040000119651E0A038B50719F7802F8095829595
:10041000807F8D29883C69F1893C90F4883839F1D6
:10042000893838F4823899F1843849F18138F1F506
:1004300036C0823C71F1843C21F1813CB9F531C078
:10044000883EC9F0893E38F4823E29F1843ED9F0D5
:10045000813E61F528C0823F01F1833F18F4813F5E
:1004600029F523C0843F89F0883F01F506C011E3D8
:100470001DC012E31BC013E319C011E417C014E33D
:1004800015C015E313C016E311C012E40FC017E343
:100490000DC018E30BC019E309C013E407C01AE24A
:1004A00005C010E303C013E201C014E421966C16EA
:1004B0007D0621F0D694E0E8F1E018CF812FDF919E
:1004C000CF911F910F91FF90EF90DF90BF90AF9071
:1004D0009F908F907F906F900895FC018081918113
:1004E000A281B3818093800190938101A0938201C6
:1004F000B0938301FB0180819181A281B3818093BC
:100500007C0190937D01A0937E01B0937F0185B71C
:100510008F7E85BFACE7B1E0FD018081883018F4A3
:100520008AB11AB802C084B114B8319661E0E038DB
:10053000F60799F741E050E08C91883050F42BB1E8
:10054000FA0102C0EE0FFF1F8A95E2F72E2B2BB99E
:100550000BC025B190E00897BA0102C0660F771F63
:100560008A95E2F7262B25B9119671E0A038B707D6
:1005700019F708954F925F926F927F928F929F9298
:10058000AF92BF92CF92DF92EF92FF920F931F93A1
:10059000DF93CF93CDB7DEB7C258D0400FB6F894F3
:1005A000DEBF0FBECDBF0E94A00060E875E280E014
:1005B00090E00E94A80380E691E064E671E00E946A
:1005C0006D0243E0642E712C6C0E7D1E4301CE0142
:1005D0008D5B9F4FF40111924F01E817F907D1F796
:1005E000CE018D579F4F1192E817F907E1F7CC2400
:1005F000EE248E010D5F1F4FC8010E947000C801DC
:100600000E94DB038DE00E94D30315E02E010894C5
:10061000411C511C33E4A32EB12CAC0EBD1E0E9414
:100620005601082F882309F18E15F9F080538A307E
:10063000F0F4019FB0011124625C7F4FDB010D904B
:100640000020E9F71197A61BB70B802F90E0C09709
:10065000AD0192010E94C00089818111CA94F50107
:10066000EC0DF11D8A818083C394E02ED8CF0A322D
:10067000E1F723E0A22EB12CAC0EBD1EF5010190D6
:100680000020E9F77F010894E108F108EA18FB0867
:10069000FE2C93E4C92ED12CCC0EDD1EF601019068
:1006A0000020E9F78F01015010400C191D09102F8F
:1006B0008DE00E94D303C5016E2DA601202F0E945C
:1006C0005300882331F080E091E00E94DB03F301C6
:1006D00004C084E191E0F9CF11928E2F86198F1515
:1006E000D9F7F40101C011928E2F88198117D9F71B
:1006F000CC248AE2E82E7DCF1F920F920FB60F9284
:1007000011248F939F93EF93FF93809178019091A1
:10071000C600E82FF0E0EC57FE4F90838F5F809388
:100720007801809178018F738093780180917601B0
:10073000803428F4809176018F5F80937601FF9159
:10074000EF919F918F910F900FBE0F901F90189572
:100750009B01AC0180E28093C00088E98093C100D6
:1007600086E08093C20084E0220F331F441F551F90
:100770008A95D1F760E074E284EF90E00E9444042F
:10078000215030403093C5002093C40092E094BDC6
:1007900083E085BD89EF87BD90936E0078940895BE
:1007A000809176010895982F8091C00085FFFCCF3D
:1007B0009093C6000895FC0107C08091C00085FF9A
:1007C000FCCF9093C600319690819923B1F708959C
:1007D0009C01F9012F5F3F4F9491992339F080914B
:1007E000C00085FFFCCF9093C600F3CF08958091A1
:1007F0007601882311F4EFEF14C080917701E82F80
:10080000F0E0EC57FE4FE0818F5F8093770180919D
:1008100077018F7380937701809176018150809367
:1008200076018E2F0895EF92FF921F93CF93DF935F
:100830007C0110E006C00E94F703CE0DDF1D888307
:100840001F5F80917601C12FD0E08823A1F7CE0DE4
:10085000DF1D1882812FDF91CF911F91FF90EF90C4
:10086000089597FB092E07260AD077FD04D02ED0D5
:1008700006D000201AF4709561957F4F0895F6F721
:10088000909581959F4F0895A1E21A2EAA1BBB1B3C
:10089000FD010DC0AA1FBB1FEE1FFF1FA217B3074C
:1008A000E407F50720F0A21BB30BE40BF50B661F62
:1008B000771F881F991F1A9469F760957095809526
:1008C00090959B01AC01BD01CF010895AA1BBB1BF4
:1008D00051E107C0AA1FBB1FA617B70710F0A61B40
:1008E000B70B881F991F5A95A9F780959095BC0161
:1008F000CD010895A0E0B0E0E0E8F4E00C941D051F
:10090000EC01A880B980CA80DB80A114B104C104C5
:10091000D10441F484E2A82E89EDB82E8BE5C82ECF
:1009200087E0D82EC601B5012DE133EF41E050E05C
:100930000E94FA0427EA31E440E050E00E94DB0420
:100940007B018C01C601B5012DE133EF41E050E0A0
:100950000E94FA04CA01B9012CEE34EF4FEF5FEFA9
:100960000E94DB046E0D7F1D801F911F97FF04C046
:100970006150704080409048688379838A839B836C
:100980009B013F77C901CDB7DEB7EAE00C9439058A
:100990000E947A0408958AE291E00E947A04089500
:1009A000A0E0B0E080932A0190932B01A0932C014A
:1009B000B0932D010895629FD001739FF001829F33
:1009C000E00DF11D649FE00DF11D929FF00D839FDE
:1009D000F00D749FF00D659FF00D9927729FB00D7B
:1009E000E11DF91F639FB00DE11DF91FBD01CF018E
:1009F0001124089597FB092E05260ED057FD04D02B
:100A000043DF0AD0001C38F450954095309521956D
:100A10003F4F4F4F5F4F0895F6F790958095709533
:100A200061957F4F8F4F9F4F08952F923F924F9226
:100A30005F926F927F928F929F92AF92BF92CF926E
:100A4000DF92EF92FF920F931F93CF93DF93CDB777
:100A5000DEB7CA1BDB0B0FB6F894DEBF0FBECDBFEF
:100A600009942A88398848885F846E847D848C84C0
:100A70009B84AA84B984C884DF80EE80FD800C81C9
:100A80001B81AA81B981CE0FD11D0FB6F894DEBFAC
:0C0A90000FBECDBFED010895F894FFCF1C
:100A9C004973707261766E6F20756E6574206B6F22
:100AAC00640D0D004E656973707261766E6F207502
:100ABC006E6574206B6F640D0D000100000030003A
:100ACC000000003100000000326162630033646595
:100ADC0066003467686900356A6B6C00366D6E6F42
:100AEC000037707172733874757600397778797A4B
:080AFC000B0A090807060504B6
:00000001FF
