:100000000C9434000C9451000C9451000C94510049
:100010000C9451000C9451000C9451000C9451001C
:100020000C9451000C9451000C9451000C9451000C
:100030000C9451000C9451000C943E010C9451000E
:100040000C9451000C9451000C94EA000C94510053
:100050000C9451000C9451000C9451000C945100DC
:100060000C9451000C94510011241FBECFEFD8E026
:10007000DEBFCDBF11E0A0E0B1E0E6ECFAE002C0E7
:1000800005900D92AC34B107D9F711E0ACE4B1E0C2
:1000900001C01D92A139B107E1F70E949B000C94A9
:1000A00061050C9400000F931F93DF93CF93CDB79E
:1000B000DEB7C054D0400FB6F894DEBF0FBECDBF40
:1000C0002DB73EB7285030400FB6F8943EBF0FBE54
:1000D0002DBFEDB7FEB731968E010F5F1F4FADB745
:1000E000BEB712961C930E93119720E031E0338334
:1000F000228364837583868397830E948902EDB788
:10010000FEB738960FB6F894FEBF0FBEEDBF02C023
:100110000E945801D8018D918D018823C9F7C05CD8
:10012000DF4F0FB6F894DEBF0FBECDBFCF91DF918A
:100130001F910F910895AF92BF92CF92DF92EF92ED
:10014000FF920F931F93DF93CF93CDB7DEB7C054C9
:10015000D0400FB6F894DEBF0FBECDBF60E875E2A9
:1001600080E090E00E94160180E9A82E81E0B82E80
:100170006E010894C11CD11C83E091E00E946001D3
:100180000E9455018823E1F388EE93E0F501319751
:10019000F1F70197D9F70E94C3017B018C01C601D9
:1001A0000E9498018BE191E00E946001C801B701B3
:1001B0000E94530089E291E00E9460018BE291E08D
:1001C0000E946001C6010E94600189E491E00E94E2
:1001D0006001D2CF1F920F920FB60F9211248F930E
:1001E0009F93EF93FF9380914E019091C600E82F6B
:1001F000F0E0EF5AFE4F90838F5F80934E01809125
:100200004E018F7380934E0180914C01803428F40D
:1002100080914C018F5F80934C01FF91EF919F91F2
:100220008F910F900FBE0F901F9018959B01AC01FE
:1002300080E28093C00088E98093C10086E08093CB
:10024000C20084E0220F331F441F551F8A95D1F747
:1002500060E074E284EF90E00E9467022150304039
:100260003093C5002093C40092E094BD83E085BD27
:1002700089EF87BD90936E00789408951F920F9236
:100280000FB60F9211248F939F9380914F019091FD
:10029000500101969093500180934F019F918F914F
:1002A0000F900FBE0F901F90189580914C010895EC
:1002B000982F8091C00085FFFCCF9093C6000895D1
:1002C000FC0107C08091C00085FFFCCF9093C60061
:1002D000319690819923B1F708959C01F9012F5F20
:1002E0003F4F9491992339F08091C00085FFFCCF56
:1002F0009093C600F3CF089580914C01882311F4A8
:10030000EFEF14C080914D01E82FF0E0EF5AFE4F5F
:10031000E0818F5F80934D0180914D018F738093B9
:100320004D0180914C01815080934C018E2F089596
:10033000EF92FF921F93CF93DF937C0110E006C0F2
:100340000E947C01CE0DDF1D88831F5F80914C01D0
:10035000C12FD0E08823A1F7CE0DDF1D1882812F99
:10036000DF91CF911F91FF90EF90089580914C0104
:10037000882311F48FEF0895E0914D01F0E0EF5ADA
:10038000FE4F80810895BF92CF92DF92EF92FF924D
:100390000F931F931092500110924F010FC00E94B3
:1003A0007C01282F80914F0190915001805D9740F2
:1003B00029F420E030E040E050E060C080914C0142
:1003C000882369F3E0914D01F0E0EF5AFE4F808100
:1003D00080332CF380914C01882341F0E0914D0152
:1003E000F0E0EF5AFE4F80818A33CCF62D3219F4BB
:1003F000BB24BA9402C0BB24B394CC24DD24760180
:1004000019C00E947C01082FC701B6012AE030E024
:1004100040E050E00E944802112707FD109500536C
:1004200010406801EE24D7FCE094FE2CC60ED71EC7
:10043000E81EF91E80914C018823A1F0E0914D0146
:10044000F0E0EF5AFE4F8081803364F080914C01E0
:100450008823B9F2E0914D01F0E0EF5AFE4F808120
:100460008A337CF22B2D332727FD3095432F532FD2
:10047000C701B6010E9448029B01AC01B901CA0143
:100480001F910F91FF90EF90DF90CF90BF90089554
:10049000629FD001739FF001829FE00DF11D649F68
:1004A000E00DF11D929FF00D839FF00D749FF00DF4
:1004B000659FF00D9927729FB00DE11DF91F639F95
:1004C000B00DE11DF91FBD01CF0111240895A1E276
:1004D0001A2EAA1BBB1BFD010DC0AA1FBB1FEE1FBE
:1004E000FF1FA217B307E407F50720F0A21BB30B09
:1004F000E40BF50B661F771F881F991F1A9469F785
:1005000060957095809590959B01AC01BD01CF01E0
:100510000895AEE0B0E0EFE8F2E00C9438050D8904
:100520001E8986E08C831A8309838FEF9FE79E8361
:100530008D839E01275E3F4FCE0101966F89788D96
:10054000A9010E94AD022F813885020F131FF80107
:1005500010822E96E4E00C945405ABE0B0E0E3EB9F
:10056000F2E00C942A053C012B015A01FC01178290
:100570001682838181FD03C06FEF7FEFC6C19AE0D1
:10058000892E1E010894211C311CF3012381F201E4
:1005900023FD859123FF81912F01882309F4B2C1A6
:1005A000853239F423FD859123FF81912F01853216
:1005B00029F490E0B3010E94A004E7CF982FFF2414
:1005C000EE249924FFE1FF15D0F09B3269F09C32B4
:1005D00028F4903259F0933291F40EC09D3249F0D4
:1005E000903369F441E024C052E0F52A84E0F82A0F
:1005F00028C098E0F92A25C0E0E1FE2A22C0F7FCD5
:1006000029C0892F80538A3070F4F6FE05C0989C6B
:10061000902C1124980E15C0E89CE02C1124E80EB3
:10062000F0E2FF2A0EC09E3229F4F6FC6BC140E4D2
:10063000F42A07C09C3619F450E8F52A02C098360F
:1006400049F4F20123FD959123FF91912F01992304
:1006500009F0B8CF892F8554833018F08052833049
:1006600038F444E050E0A40EB51E5FE359830FC098
:10067000933631F0933779F0933509F056C020C0A6
:10068000F5018081898342E050E0A40EB51E61012E
:1006900001E010E012C0F501C080D180F6FC03C07B
:1006A0006FEF7FEF02C0692D70E042E050E0A40ED2
:1006B000B51EC6010E9495048C015FE7F52214C0A7
:1006C000F501C080D180F6FC03C06FEF7FEF02C060
:1006D000692D70E042E050E0A40EB51EC6010E94F4
:1006E0008A048C0150E8F52AF3FE07C01AC080E2A4
:1006F00090E0B3010E94A004EA948E2D90E00817C8
:100700001907A8F30EC0F601F7FC8591F7FE819159
:100710006F0190E0B3010E94A004E110EA9401503F
:1007200010400115110579F7EAC0943611F0993699
:1007300069F5F7FE08C0F5012081318142815381BE
:1007400084E090E00AC0F501808191819C014427FA
:1007500037FD4095542F82E090E0A80EB91E9FE629
:10076000F92257FF09C050954095309521953F4F8C
:100770004F4F5F4FE0E8FE2ACA01B901A1012AE00C
:1007800030E00E94CC04D82ED21840C0953729F40E
:100790001F2D1F7E2AE030E01DC01F2D197F9F36C0
:1007A00061F0903720F4983509F0ACC00FC0903755
:1007B00039F0983709F0A6C004C028E030E00AC03C
:1007C000106114FD146020E130E004C014FD1660D7
:1007D00020E132E017FF08C0F5016081718182815C
:1007E000938144E050E008C0F50180819181BC0113
:1007F00080E090E042E050E0A40EB51EA1010E940E
:10080000CC04D82ED2188FE7F82EF122F6FE0BC0BA
:100810005EEFF522D91438F4F4FE07C0F2FC05C0EF
:100820008FEEF82202C01D2D01C0192DF4FE0DC05F
:10083000FE01ED0DF11D8081803319F499EEF9224E
:1008400008C01F5FF2FE05C003C08F2D867809F037
:100850001F5F0F2DF3FC14C0F0FE0FC01E1510F02B
:100860009D2C0BC09D2C9E0C911A1E2D06C080E263
:1008700090E0B3010E94A0041F5F1E15C0F304C0E6
:100880001E1510F4E11A01C0EE2404FF0FC080E32E
:1008900090E0B3010E94A00402FF1DC001FD03C04F
:1008A00088E790E00EC088E590E00BC0802F867846
:1008B00091F001FF02C08BE201C080E2F7FC8DE203
:1008C00090E0B3010E94A00406C080E390E0B30171
:1008D0000E94A0049A94D914C0F3DA94F101ED0DAA
:1008E000F11D808190E0B3010E94A004DD20A9F7F2
:1008F00006C080E290E0B3010E94A004EA94EE20DA
:10090000C1F743CEF30166817781CB012B96E2E1FB
:100910000C944605FC010590615070400110D8F719
:10092000809590958E0F9F1F0895FC016150704037
:1009300001900110D8F7809590958E0F9F1F089514
:100940000F931F93CF93DF938C01EB018B8181FF7A
:100950001BC082FF0DC02E813F818C819D81281795
:10096000390764F4E881F9810193F983E88306C0CB
:10097000E885F985802F0995892B31F48E819F8137
:1009800001969F838E8302C00FEF1FEFC801DF9196
:10099000CF911F910F910895FA01AA27283051F1A4
:1009A000203181F1E8946F936E7F6E5F7F4F8F4FA0
:1009B0009F4FAF4FB1E03ED0B4E03CD0670F781FFF
:1009C000891F9A1FA11D680F791F8A1F911DA11DE4
:1009D0006A0F711D811D911DA11D20D009F468941D
:1009E0003F912AE0269F11243019305D3193DEF6C5
:1009F000CF010895462F4770405D4193B3E00FD07B
:100A0000C9F7F6CF462F4F70405D4A3318F0495D65
:100A100031FD4052419302D0A9F7EACFB4E0A69548
:100A20009795879577956795BA95C9F7009761056A
:100A3000710508959B01AC010A2E069457954795C0
:100A400037952795BA95C9F7620F731F841F951FB5
:100A5000A01D08952F923F924F925F926F927F92C6
:100A60008F929F92AF92BF92CF92DF92EF92FF92BE
:100A70000F931F93CF93DF93CDB7DEB7CA1BDB0B6A
:100A80000FB6F894DEBF0FBECDBF09942A8839880F
:100A900048885F846E847D848C849B84AA84B98416
:100AA000C884DF80EE80FD800C811B81AA81B98122
:100AB000CE0FD11D0FB6F894DEBF0FBECDBFED0136
:060AC0000895F894FFCF39
:100AC600256400556E6573697465206E656B6920D3
:100AD60063656F2062726F6A3A0D00556E65742009
:100AE6006A652062726F6A20000D005072617A6E2C
:100AF6006A656E6A65206F737461746B61206261EA
:0C0B0600666572612E2E2E20000D0D0081
:00000001FF
