:100000000C9434000C9451000C9451000C94510049
:100010000C9451000C9451000C9451000C9451001C
:100020000C9451000C9451000C9451000C9451000C
:100030000C9451000C9451000C9482060C945100C5
:100040000C9451000C9451000C942E060C94510009
:100050000C9451000C9451000C9451000C945100DC
:100060000C9451000C94510011241FBECFEFD8E026
:10007000DEBFCDBF12E0A0E0B1E0E4E6F7E102C0F0
:1000800005900D92AA35B107D9F712E0AAE5B2E0C2
:1000900001C01D92AF39B107E1F70E94E6050C944B
:1000A000B00B0C940000A0E0B0E0E9E5F0E00C94A7
:1000B000D808DC012B01FA019C91923008F439C177
:1000C000EB018881823008F433C1943069F48430C4
:1000D00009F02FC111969C9111978981981709F405
:1000E00028C1A1E5B1E025C1843009F421C18230E5
:1000F000A9F4923009F01DC19A01AD0188E0EA012E
:100100000990AE01E90109929E018150C1F7E20117
:10011000898111969C918923818308C1923009F4C9
:1001200007C112962D903C901397EB018A819B8119
:100130001496AD90BD90CD90DC901797EC80FD802B
:100140000E811F819101281B390BB90137FF04C0B3
:1001500066277727621B730B603271050CF061C054
:10016000121613066CF537014801062E04C096944A
:100170008794779467940A94D2F721E030E040E0C6
:1001800050E004C0220F331F441F551F6A95D2F759
:1001900021503040404050402E213F2140235123E8
:1001A000211531054105510521F021E030E040E005
:1001B00050E079018A01E628F728082919293CC06E
:1001C000232BD1F1260E371E35014601062E04C021
:1001D00096948794779467940A94D2F721E030E05C
:1001E00040E050E004C0220F331F441F551F6A95A2
:1001F000D2F721503040404050402A213B214C2131
:100200005D21211531054105510521F021E030E046
:1002100040E050E059016A01A628B728C828D9282B
:100220000BC0821593052CF01C01AA24BB24650188
:1002300003C0EE24FF24870111969C91D2011196F0
:100240008C91981709F445C0992339F0A8019701BA
:100250002A193B094C095D0906C0A60195012E1912
:100260003F09400B510B57FD08C011823382228297
:1002700024833583468357831DC081E08183338285
:10028000228288279927DC01821B930BA40BB50BD4
:1002900084839583A683B7830DC0220F331F441F29
:1002A000551F248335834683578382819381019729
:1002B000938382832481358146815781DA01C90184
:1002C0000197A109B1098F5F9F4FAF4FBF4328F33B
:1002D0000BC0918333822282EA0CFB1C0C1D1D1D76
:1002E000E482F5820683178383E08083248135814D
:1002F0004681578157FF1AC0C901AA2797FDA095CB
:10030000BA2F81709070A070B07056954795379550
:100310002795822B932BA42BB52B84839583A683BF
:10032000B78382819381019693838283DF0101C029
:10033000D201CD01CDB7DEB7E2E10C94F408A0E222
:10034000B0E0E5EAF1E00C94E40869837A838B83FA
:100350009C832D833E834F835887E9E0EE2EF12C5A
:10036000EC0EFD1ECE010196B7010E9425058E01FF
:100370000F5E1F4FCE010596B8010E9425058A89A0
:1003800091E089278A8BC701B801AE01475E5F4FB4
:100390000E9453000E945004A096E6E00C940009CD
:1003A000A0E2B0E0E6EDF1E00C94E40869837A8322
:1003B0008B839C832D833E834F835887F9E0EF2EF8
:1003C000F12CEC0EFD1ECE010196B7010E94250511
:1003D0008E010F5E1F4FCE010596B8010E942505C4
:1003E000C701B801AE01475E5F4F0E9453000E94F3
:1003F0005004A096E6E00C940009A0E2B0E0E3E02F
:10040000F2E00C94D80869837A838B839C832D83D4
:100410003E834F835887CE010196BE01675F7F4FB1
:100420000E942505CE010596BE016F5E7F4F0E949A
:1004300025059985923088F089898230C8F09430FA
:1004400019F4823051F404C0843029F4923081F4DC
:1004500081E591E0C6C0923049F420E09A858A890E
:10046000981321E02A87CE010996BBC0823049F457
:1004700020E09A858A89981321E02A8BCE01419643
:10048000B0C02D843E844F8458886D887E888F88C4
:10049000988CEE24FF248701AA24BB24650140E048
:1004A00050E060E070E0E0E0F0E0C1018170907049
:1004B000892BE9F0E60CF71C081D191D9A01AB0108
:1004C0002A0D3B1D4C1D5D1D80E090E0A0E0B0E0DA
:1004D000E614F7040805190520F481E090E0A0E097
:1004E000B0E0BA01A901480F591F6A1F7B1FAA0C6F
:1004F000BB1CCC1CDD1C97FE08C081E090E0A0E096
:10050000B0E0A82AB92ACA2ADB2A3196E032F105DE
:1005100049F0660C771C881C991C569447943794B4
:100520002794C3CFFA85EA892B893C898B859C85E2
:10053000280F391F2E5F3F4F17C0CA01817090707E
:10054000892B61F016950795F794E79480E090E089
:10055000A0E0B0E8E82AF92A0A2B1B2B76956795CC
:10056000579547952F5F3F4F77FDE7CF0CC0440F5E
:10057000551F661F771F17FD4160EE0CFF1C001F03
:10058000111F21503040403090E0590790E069073A
:1005900090E4790760F32B8F3C8FDB01CA018F77E2
:1005A0009070A070B07080349105A105B10561F420
:1005B00047FD0AC0E114F1040105110529F0405C72
:1005C0005F4F6F4F7F4F40781A8EFE1711F081E01A
:1005D0008A8F4D8F5E8F6F8F78A383E0898FCE01D6
:1005E00049960E945004A096E2E10C94F408A8E118
:1005F000B0E0EDEFF2E00C94E00869837A838B833E
:100600009C832D833E834F835887B9E0EB2EF12CDA
:10061000EC0EFD1ECE010196B7010E9425058E014C
:100620000F5E1F4FCE010596B8010E942505298552
:10063000223008F47EC03989323010F4B8017CC011
:100640008A859A8989278A87243011F0223031F4EB
:10065000231709F06EC061E571E06EC0343039F4E3
:100660001D861E861F86188A1C861B8604C0323093
:1006700021F484E08987B7015FC02B853C858B8995
:100680009C89281B390B3C872B87ED84FE840F85C2
:100690001889AD88BE88CF88D88CEA14FB040C0575
:1006A0001D0540F4EE0CFF1C001F111F21503040AF
:1006B0003C872B8720E030E040E050E080E090E095
:1006C000A0E0B0E460E070E0EA14FB040C051D0556
:1006D00040F0282B392B4A2B5B2BEA18FB080C091E
:1006E0001D09B695A79597958795EE0CFF1C001FE1
:1006F000111F6F5F7F4F6F31710531F7DA01C9014B
:100700008F779070A070B07080349105A105B1050D
:1007100061F427FD0AC0E114F1040105110529F077
:10072000205C3F4F4F4F5F4F20782D873E874F878C
:10073000588BBE01675F7F4FCB010E9450046896C3
:10074000EAE00C94FC08A8E0B0E0E9EAF3E00C94DD
:10075000E1089B01AC0183E08983DA01C9018827A4
:10076000B7FD83959927AA27BB27B82E21153105F8
:100770004105510519F482E089833AC08823A9F024
:10078000203080E0380780E0480780E8580729F4E7
:1007900060E070E080E09FEC30C0EE24FF24870131
:1007A000E21AF30A040B150B02C079018A018EE1EB
:1007B000C82ED12CDC82CB82ED82FE820F8318877B
:1007C000C801B7010E94010401971816190684F4A4
:1007D000082E04C0EE0CFF1C001F111F0A94D2F754
:1007E000ED82FE820F831887C81AD90ADC82CB8279
:1007F000BA82CE0101960E9450042896E9E00C943A
:10080000FD08EF92FF920F931F937B018C0180E014
:10081000E81680E0F80681E0080780E0180788F411
:100820008FEFE816F1040105110531F028F088E09A
:1008300090E0A0E0B0E017C080E090E0A0E0B0E081
:1008400012C080E0E81680E0F80680E0080781E04A
:10085000180728F088E190E0A0E0B0E004C080E153
:1008600090E0A0E0B0E020E230E040E050E0281B63
:10087000390B4A0B5B0B04C016950795F794E79468
:100880008A95D2F7F701E75AFE4F8081281B31097C
:1008900041095109C9011F910F91FF90EF900895EF
:1008A000DF92EF92FF920F931F93FC01E480F5809B
:1008B00006811781D1808081823048F480E090E009
:1008C000A0E1B0E0E82AF92A0A2B1B2BA5C084304E
:1008D00009F49FC0823021F4EE24FF24870105C073
:1008E000E114F1040105110519F4E0E0F0E096C00F
:1008F000628173819FEF623879070CF05BC022E858
:100900003FEF261B370B2A3131052CF020E030E079
:1009100040E050E02AC0B801A701022E04C076953D
:100920006795579547950A94D2F781E090E0A0E04B
:10093000B0E004C0880F991FAA1FBB1F2A95D2F7E9
:100940000197A109B1098E219F21A023B12300970E
:10095000A105B10521F081E090E0A0E0B0E09A01AE
:10096000AB01282B392B4A2B5B2BDA01C9018F777E
:100970009070A070B07080349105A105B10539F474
:1009800027FF09C0205C3F4F4F4F5F4F04C0215CE1
:100990003F4F4F4F5F4FE0E0F0E02030A0E03A07DC
:1009A000A0E04A07A0E45A0710F0E1E0F0E0790186
:1009B0008A0127C06038710564F5FB01E158FF4FDB
:1009C000D801C7018F779070A070B0708034910506
:1009D000A105B10539F4E7FE0DC080E490E0A0E088
:1009E000B0E004C08FE390E0A0E0B0E0E80EF91EB4
:1009F0000A1F1B1F17FF05C016950795F794E7946C
:100A0000319687E016950795F794E7948A95D1F784
:100A100005C0EE24FF248701EFEFF0E06E2F67950D
:100A200066276795902F9F77D794DD24D7948E2FD4
:100A30008695492F462B582F5D29B701CA011F9172
:100A40000F91FF90EF90DF900895FC01DB01408152
:100A500051812281622F6F7770E0221F2227221F8F
:100A60009381892F880F822B282F30E0991F992797
:100A7000991F11969C93119721153105A9F54115E0
:100A800051056105710511F482E037C082E89FEFDE
:100A900013969C938E9312979A01AB0167E0220FF5
:100AA000331F441F551F6A95D1F783E08C930DC007
:100AB000220F331F441F551F12968D919C9113973F
:100AC000019713969C938E931297203080E03807FD
:100AD00080E0480780E4580758F314962D933D931F
:100AE0004D935C93179708952F3F310579F4411585
:100AF00051056105710519F484E08C93089564FF34
:100B000003C081E08C9312C01C9210C02F5730405C
:100B100013963C932E93129783E08C9387E0440FB7
:100B2000551F661F771F8A95D1F7706414964D93F1
:100B30005D936D937C931797089508950F931F937A
:100B4000DF93CF93CDB7DEB7C054D0400FB6F89443
:100B5000DEBF0FBECDBF2DB73EB7285030400FB619
:100B6000F8943EBF0FBE2DBFEDB7FEB731968E0194
:100B70000F5F1F4FADB7BEB712961C930E93119720
:100B800020E031E0338322836483758386839783F7
:100B90000E940F09EDB7FEB738960FB6F894FEBF66
:100BA0000FBEEDBF02C00E949C06D8018D918D0141
:100BB0008823C9F7C05CDF4F0FB6F894DEBF0FBEC5
:100BC000CDBFCF91DF911F910F910895EF92FF92CA
:100BD0000F931F93DF93CF93CDB7DEB7C054D040B0
:100BE0000FB6F894DEBF0FBECDBF60E875E280E0BF
:100BF00090E00E945A0680E9E82E81E0F82E8E01EE
:100C00000F5F1F4F85E091E00E94A4060E949906A5
:100C10008823E1F388EE93E0F7013197F1F701972C
:100C2000D9F7C8010E94DC0680E291E00E94A40688
:100C30006CEE71E588EC91E40E949E058EE291E0F5
:100C40000E94A40680E391E00E94A406C8010E94CD
:100C5000A4068EE491E00E94A406D4CF1F920F92C6
:100C60000FB60F9211248F939F93EF93FF93809170
:100C70005C029091C600E82FF0E0E15AFD4F9083AE
:100C80008F5F80935C0280915C028F7380935C0223
:100C900080915A02803428F480915A028F5F8093A9
:100CA0005A02FF91EF919F918F910F900FBE0F907D
:100CB0001F9018959B01AC0180E28093C00088E9E9
:100CC0008093C10086E08093C20084E0220F331F2E
:100CD000441F551F8A95D1F760E074E284EF90E0DD
:100CE0000E94B608215030403093C5002093C400C4
:100CF00092E094BD83E085BD89EF87BD90936E003F
:100D0000789408951F920F920FB60F9211248F932B
:100D10009F9380915D0290915E02019690935E0296
:100D200080935D029F918F910F900FBE0F901F9047
:100D3000189580915A020895982F8091C00085FFE0
:100D4000FCCF9093C6000895FC0107C08091C000BD
:100D500085FFFCCF9093C600319690819923B1F71F
:100D600008959C01F9012F5F3F4F9491992339F029
:100D70008091C00085FFFCCF9093C600F3CF08950B
:100D800080915A02882311F4EFEF14C080915B0226
:100D9000E82FF0E0E15AFD4FE0818F5F80935B0226
:100DA00080915B028F7380935B0280915A02815025
:100DB00080935A028E2F0895EF92FF921F93CF9344
:100DC000DF937C0110E006C00E94C006CE0DDF1D3F
:100DD00088831F5F80915A02C12FD0E08823A1F73A
:100DE000CE0DDF1D1882812FDF91CF911F91FF90D3
:100DF000EF90089580915A02882311F48FEF08959F
:100E0000E0915B02F0E0E15AFD4F80810895BF92CE
:100E1000CF92DF92EF92FF920F931F9310925E0298
:100E200010925D020FC00E94C006282F80915D02C3
:100E300090915E02805D974029F420E030E040E030
:100E400050E060C080915A02882369F3E0915B0210
:100E5000F0E0E15AFD4F808180332CF380915A02FB
:100E6000882341F0E0915B02F0E0E15AFD4F808180
:100E70008A33CCF62D3219F4BB24BA9402C0BB24B9
:100E8000B394CC24DD24760119C00E94C006082F3B
:100E9000C701B6012AE030E040E050E00E94970828
:100EA000112707FD1095005310406801EE24D7FC70
:100EB000E094FE2CC60ED71EE81EF91E80915A0241
:100EC0008823A1F0E0915B02F0E0E15AFD4F8081C0
:100ED000803364F080915A028823B9F2E0915B027A
:100EE000F0E0E15AFD4F80818A337CF22B2D3327CD
:100EF00027FD3095432F532FC701B6010E94970855
:100F00009B01AC01B901CA011F910F91FF90EF90B5
:100F1000DF90CF90BF9008956F927F928F929F92B3
:100F2000AF92BF92CF92DF92EF92FF920F931F93F7
:100F300010925E0210925D020FC00E94C006282F20
:100F400080915D0290915E02805D974029F4E0E01F
:100F500070E080E060E0D8C080915A02882369F395
:100F6000E0915B02F0E0E15AFD4F808180332CF389
:100F700080915A02882341F0E0915B02F0E0E15A4F
:100F8000FD4F80818A33CCF62D3219F477247A9480
:100F900002C0772473940F2EF0E0EF2EF0E0FF2EC6
:100FA000F0E00F2FF0E01F2FF02D22C00E94C006AE
:100FB000D82EC801B70120E030E040E251E40E94A1
:100FC000FD017B018C012D2D332727FD309520530A
:100FD0003040B901882777FD8095982F0E94A303A0
:100FE0009B01AC01C801B7010E94D0017B018C01BB
:100FF00080915A028823A1F0E0915B02F0E0E15A6F
:10100000FD4F8081803364F080915A02882371F211
:10101000E0915B02F0E0E15AFD4F80818A3334F2C7
:10102000570168010E94C0068E3209F05FC0882413
:1010300083949AE0692E25C00E94C006982EC601AE
:10104000B50120E030E040E251E40E94FD017B0167
:101050008C01292D332727FD309520533040B901CD
:10106000882777FD8095982F0E94A3039B01AC01F0
:10107000C801B7010E94D0015B016C01869C802CE5
:10108000112480915A028823A1F0E0915B02F0E0E4
:10109000E15AFD4F8081803364F080915A028823A9
:1010A00059F2E0915B02F0E0E15AFD4F80818A3312
:1010B0001CF2672D772767FD7095872F972F0E9469
:1010C000A303A60195010E94FD017B018C01682DFF
:1010D000772767FD7095872F972F0E94A3039B01A9
:1010E000AC01C801B7010E94F7020CC0672D772739
:1010F00067FD7095872F972F0E94A303A801970182
:101100000E94FD01E62F692F2E2F372F482F562FD3
:10111000B901CA011F910F91FF90EF90DF90CF901E
:10112000BF90AF909F908F907F906F900895629F37
:10113000D001739FF001829FE00DF11D649FE00DCF
:10114000F11D929FF00D839FF00D749FF00D659F30
:10115000F00D9927729FB00DE11DF91F639FB00D2F
:10116000E11DF91FBD01CF0111240895A1E21A2E3E
:10117000AA1BBB1BFD010DC0AA1FBB1FEE1FFF1F3B
:10118000A217B307E407F50720F0A21BB30BE40B8B
:10119000F50B661F771F881F991F1A9469F76095D2
:1011A0007095809590959B01AC01BD01CF0108958C
:1011B0002F923F924F925F926F927F928F929F9267
:1011C000AF92BF92CF92DF92EF92FF920F931F9355
:1011D000CF93DF93CDB7DEB7CA1BDB0B0FB6F89406
:1011E000DEBF0FBECDBF09942A88398848885F8446
:1011F0006E847D848C849B84AA84B984C884DF80B7
:10120000EE80FD800C811B81AA81B981CE0FD11D9A
:101210000FB6F894DEBF0FBECDBFED010895AEE06E
:10122000B0E0E5E1F9E00C94E6080D891E8986E05E
:101230008C831A8309838FEF9FE79E838D839E01A2
:10124000275E3F4FCE0101966F89788DA9010E94DC
:1012500033092F813885020F131FF80110822E9653
:10126000E4E00C940209ABE0B0E0E9E3F9E00C94AF
:10127000D8083C012B015A01FC0117821682838198
:1012800081FD03C06FEF7FEFC6C19AE0892E1E017A
:101290000894211C311CF3012381F20123FD859167
:1012A00023FF81912F01882309F4B2C1853239F4DB
:1012B00023FD859123FF81912F01853229F490E050
:1012C000B3010E94260BE7CF982FFF24EE24992428
:1012D000FFE1FF15D0F09B3269F09C3228F4903288
:1012E00059F0933291F40EC09D3249F0903369F475
:1012F00041E024C052E0F52A84E0F82A28C098E0B2
:10130000F92A25C0E0E1FE2A22C0F7FC29C0892F76
:1013100080538A3070F4F6FE05C0989C902C1124FE
:10132000980E15C0E89CE02C1124E80EF0E2FF2A8C
:101330000EC09E3229F4F6FC6BC140E4F42A07C0CB
:101340009C3619F450E8F52A02C0983649F4F201A7
:1013500023FD959123FF91912F01992309F0B8CF97
:10136000892F8554833018F08052833038F444E05C
:1013700050E0A40EB51E5FE359830FC0933631F0E1
:10138000933779F0933509F056C020C0F50180817C
:10139000898342E050E0A40EB51E610101E010E037
:1013A00012C0F501C080D180F6FC03C06FEF7FEF63
:1013B00002C0692D70E042E050E0A40EB51EC601E7
:1013C0000E941B0B8C015FE7F52214C0F501C08061
:1013D000D180F6FC03C06FEF7FEF02C0692D70E093
:1013E00042E050E0A40EB51EC6010E94100B8C0115
:1013F00050E8F52AF3FE07C01AC080E290E0B3017E
:101400000E94260BEA948E2D90E008171907A8F386
:101410000EC0F601F7FC8591F7FE81916F0190E017
:10142000B3010E94260BE110EA940150104001150F
:10143000110579F7EAC0943611F0993669F5F7FE8F
:1014400008C0F501208131814281538184E090E020
:101450000AC0F501808191819C01442737FD4095A8
:10146000542F82E090E0A80EB91E9FE6F92257FFA4
:1014700009C050954095309521953F4F4F4F5F4F94
:10148000E0E8FE2ACA01B901A1012AE030E00E9489
:10149000520BD82ED21840C0953729F41F2D1F7E2D
:1014A0002AE030E01DC01F2D197F9F3661F0903774
:1014B00020F4983509F0ACC00FC0903739F0983758
:1014C00009F0A6C004C028E030E00AC0106114FD95
:1014D000146020E130E004C014FD166020E132E029
:1014E00017FF08C0F501608171818281938144E01A
:1014F00050E008C0F50180819181BC0180E090E05E
:1015000042E050E0A40EB51EA1010E94520BD82E5D
:10151000D2188FE7F82EF122F6FE0BC05EEFF5220F
:10152000D91438F4F4FE07C0F2FC05C08FEEF8229F
:1015300002C01D2D01C0192DF4FE0DC0FE01ED0DE0
:10154000F11D8081803319F499EEF92208C01F5FE4
:10155000F2FE05C003C08F2D867809F01F5F0F2DA6
:10156000F3FC14C0F0FE0FC01E1510F09D2C0BC034
:101570009D2C9E0C911A1E2D06C080E290E0B301B6
:101580000E94260B1F5F1E15C0F304C01E1510F429
:10159000E11A01C0EE2404FF0FC080E390E0B30124
:1015A0000E94260B02FF1DC001FD03C088E790E0EA
:1015B0000EC088E590E00BC0802F867891F001FF87
:1015C00002C08BE201C080E2F7FC8DE290E0B30143
:1015D0000E94260B06C080E390E0B3010E94260B18
:1015E0009A94D914C0F3DA94F101ED0DF11D8081C4
:1015F00090E0B3010E94260BDD20A9F706C080E22F
:1016000090E0B3010E94260BEA94EE20C1F743CE8E
:10161000F30166817781CB012B96E2E10C94F4080B
:10162000FC010590615070400110D8F780959095AD
:101630008E0F9F1F0895FC016150704001900110B2
:10164000D8F7809590958E0F9F1F08950F931F9345
:10165000CF93DF938C01EB018B8181FF1BC082FF55
:101660000DC02E813F818C819D812817390764F43C
:10167000E881F9810193F983E88306C0E885F9855B
:10168000802F0995892B31F48E819F8101969F834C
:101690008E8302C00FEF1FEFC801DF91CF911F9122
:1016A0000F910895FA01AA27283051F1203181F1D4
:1016B000E8946F936E7F6E5F7F4F8F4F9F4FAF4F5A
:1016C000B1E03ED0B4E03CD0670F781F891F9A1F6D
:1016D000A11D680F791F8A1F911DA11D6A0F711D21
:1016E000811D911DA11D20D009F468943F912AE02D
:1016F000269F11243019305D3193DEF6CF01089515
:10170000462F4770405D4193B3E00FD0C9F7F6CF45
:10171000462F4F70405D4A3318F0495D31FD40520D
:10172000419302D0A9F7EACFB4E0A69597958795A3
:1017300077956795BA95C9F7009761057105089582
:101740009B01AC010A2E069457954795379527952E
:10175000BA95C9F7620F731F841F951FA01D0895C6
:04176000F894FFCF2B
:10176400252E326600556E6573697465206E656B4F
:1017740069207265616C616E2062726F6A3A0D0055
:10178400556E6574206A652062726F6A20000D00D0
:101794005072617A6E6A656E6A65206F73746174E3
:1017A4006B61206261666572612E2E2E20000D0D24
:1017B4000000000000000000000001020203030317
:1017C40003040404040404040405050505050505CF
:1017D40005050505050505050506060606060606AE
:1017E4000606060606060606060606060606060695
:1017F400060606060606060606070707070707077E
:101804000707070707070707070707070707070764
:101814000707070707070707070707070707070754
:101824000707070707070707070707070707070744
:10183400070707070707070707080808080808082D
:101844000808080808080808080808080808080814
:101854000808080808080808080808080808080804
:1018640008080808080808080808080808080808F4
:1018740008080808080808080808080808080808E4
:1018840008080808080808080808080808080808D4
:1018940008080808080808080808080808080808C4
:1018A40008080808080808080808080808080808B4
:0A18B40008080808080808080800E2
:00000001FF
