:100000000C9434000C9451000C9451000C94510049
:100010000C9451000C9451000C9451000C9451001C
:100020000C9451000C9451000C9451000C9451000C
:100030000C9451000C9451000C9451000C945100FC
:100040000C9451000C9451000C94D5010C94510067
:100050000C9451000C9451000C9451000C945100DC
:100060000C9451000C94510011241FBECFEFD8E026
:10007000DEBFCDBF11E0A0E0B1E0ECE4F5E002C0EE
:1000800005900D92A830B107D9F711E0A8E0B1E0D2
:1000900001C01D92A335B107E1F70E94B7010C948E
:1000A000A4020C9400006F927F928F929F92AF9265
:1000B000BF92DF92EF92FF920F931F93CF93DF9344
:1000C000CFE0D1E038E0D32E10E024E0A22EB12C16
:1000D000AC0EBD1E350191E0E92EF12C80E4882E96
:1000E0008FE1982EE5C08081883018F48AB11AB863
:1000F00002C084B114B83196AE16BF06A1F788814C
:10010000883050F42AB1A70102C0440F551F8A95C8
:10011000E2F7242B2AB90BC024B190E00897A7017D
:1001200002C0440F551F8A95E2F7242B24B9C4015D
:100130000197F1F7ABE0B1E0FD0100E063E070E0B2
:1001400040814830D8F489B19701042E02C0220FB3
:10015000331F0A94E2F790E02823392302C0359533
:1001600027954A95E2F72130310531F5062E02C078
:10017000220F331F0A94E2F7022B1FC023B1842FF2
:1001800090E00897A701082E02C0440F551F0A945B
:10019000E2F730E04223532302C0559547958A95F4
:1001A000E2F74130510541F4062E02C0440F551FBD
:1001B0000A94E2F7042B01C000E0319661507040D0
:1001C00051E0EF30F50709F0BBCF8C91883050F447
:1001D0002BB1A70102C0440F551F8A95E2F7242BCB
:1001E0002BB90BC025B190E00897A70102C0440FBE
:1001F000551F8A95E2F7242B25B9119651E0AF30AF
:10020000B50719F7802F80958295807F8D29883CCE
:1002100069F1893C90F4883839F1893838F48238AA
:1002200099F1843849F18138F1F536C0823C71F199
:10023000843C21F1813CB9F531C0883EC9F0893E4A
:1002400038F4823E29F1843ED9F0813E61F528C020
:10025000823F01F1833F18F4813F29F523C0843F99
:1002600089F0883F01F506C011E31DC012E31BC0F1
:1002700013E319C011E417C014E315C015E313C04C
:1002800016E311C012E40FC017E30DC018E30BC052
:1002900019E309C013E407C01AE205C010E303C064
:1002A00013E201C014E421966C167D0621F0D69469
:1002B000EFE0F1E018CF812FDF91CF911F910F91E7
:1002C000FF90EF90DF90BF90AF909F908F907F90C6
:1002D0006F900895FC0180819181A281B381809308
:1002E0000F0190931001A0931101B0931201FB0133
:1002F00080819181A281B38180930B0190930C0145
:10030000A0930D01B0930E0185B78F7E85BFABE042
:10031000B1E0FD018081883018F48AB11AB802C0BA
:1003200084B114B8319661E0EF30F60799F741E0F7
:1003300050E08C91883050F42BB1FA0102C0EE0FDE
:10034000FF1F8A95E2F72E2B2BB90BC025B190E049
:100350000897BA0102C0660F771F8A95E2F7262B2D
:1003600025B9119671E0AF30B70719F708950F93CB
:100370001F9360E875E280E090E00E94010280E057
:1003800091E064E071E00E946A0101C000E00E9417
:100390005300182F8823D1F38017C9F30E94240239
:1003A0008AE00E942402012FF2CF1F920F920FB613
:1003B0000F9211248F939F93EF93FF9380910A01E3
:1003C0009091C600E82FF0E0ED5EFE4F90838F5FC6
:1003D00080930A0180910A018F7380930A018091B2
:1003E0000801803428F4809108018F5F8093080110
:1003F000FF91EF919F918F910F900FBE0F901F90E3
:1004000018959B01AC0180E28093C00088E980933D
:10041000C10086E08093C20084E0220F331F441F96
:10042000551F8A95D1F760E074E284EF90E00E9456
:100430008202215030403093C5002093C40078944C
:100440000895809108010895982F8091C00085FF3C
:10045000FCCF9093C6000895FC0107C08091C000B6
:1004600085FFFCCF9093C600319690819923B1F718
:1004700008959C01F9012F5F3F4F9491992339F022
:100480008091C00085FFFCCF9093C600F3CF089504
:1004900080910801882311F4EFEF14C080910901C5
:1004A000E82FF0E0ED5EFE4FE0818F5F8093090161
:1004B000809109018F738093090180910801815017
:1004C000809308018E2F0895EF92FF921F93CF9390
:1004D000DF937C0110E006C00E944802CE0DDF1DB4
:1004E00088831F5F80910801C12FD0E08823A1F786
:1004F000CE0DDF1D1882812FDF91CF911F91FF90CC
:10050000EF900895A1E21A2EAA1BBB1BFD010DC09E
:10051000AA1FBB1FEE1FFF1FA217B307E407F507B3
:1005200020F0A21BB30BE40BF50B661F771F881F8F
:10053000991F1A9469F760957095809590959B0125
:0C054000AC01BD01CF010895F894FFCF7D
:08054C000B0A0908070605046B
:00000001FF
