:100000000C9434000C9451000C9451000C94510049
:100010000C9451000C9451000C9451000C9451001C
:100020000C9451000C9451000C9451000C9451000C
:100030000C9451000C9451000C9451000C945100FC
:100040000C9451000C9451000C9470030C945100CA
:100050000C9451000C9451000C9451000C945100DC
:100060000C9451000C94510011241FBECFEFD8E026
:10007000DEBFCDBF11E0A0E0B1E0E2E8F8E002C0F1
:1000800005900D92AC38B107D9F711E0ACE8B1E0BA
:1000900001C01D92A73DB107E1F70E94B7010C9482
:1000A0003F040C9400006F927F928F929F92AF92C8
:1000B000BF92DF92EF92FF920F931F93CF93DF9344
:1000C000C3E9D1E038E0D32E10E024E0A22EB12C19
:1000D000AC0EBD1E350191E0E92EF12C80E4882E96
:1000E0008FE1982EE5C08081883018F48AB11AB863
:1000F00002C084B114B83196AE16BF06A1F788814C
:10010000883050F42AB1A70102C0440F551F8A95C8
:10011000E2F7242B2AB90BC024B190E00897A7017D
:1001200002C0440F551F8A95E2F7242B24B9C4015D
:100130000197F1F7AFE8B1E0FD0100E063E070E0A6
:1001400040814830D8F489B19701042E02C0220FB3
:10015000331F0A94E2F790E02823392302C0359533
:1001600027954A95E2F72130310531F5062E02C078
:10017000220F331F0A94E2F7022B1FC023B1842FF2
:1001800090E00897A701082E02C0440F551F0A945B
:10019000E2F730E04223532302C0559547958A95F4
:1001A000E2F74130510541F4062E02C0440F551FBD
:1001B0000A94E2F7042B01C000E0319661507040D0
:1001C00051E0E339F50709F0BBCF8C91883050F44A
:1001D0002BB1A70102C0440F551F8A95E2F7242BCB
:1001E0002BB90BC025B190E00897A70102C0440FBE
:1001F000551F8A95E2F7242B25B9119651E0A339B2
:10020000B50719F7802F80958295807F8D29883CCE
:1002100069F1893C90F4883839F1893838F48238AA
:1002200099F1843849F18138F1F536C0823C71F199
:10023000843C21F1813CB9F531C0883EC9F0893E4A
:1002400038F4823E29F1843ED9F0813E61F528C020
:10025000823F01F1833F18F4813F29F523C0843F99
:1002600089F0883F01F506C011E31DC012E31BC0F1
:1002700013E319C011E417C014E315C015E313C04C
:1002800016E311C012E40FC017E30DC018E30BC052
:1002900019E309C013E407C01AE205C010E303C064
:1002A00013E201C014E421966C167D0621F0D69469
:1002B000E3E9F1E018CF812FDF91CF911F910F91EA
:1002C000FF90EF90DF90BF90AF909F908F907F90C6
:1002D0006F900895FC0180819181A281B381809308
:1002E000930190939401A0939501B0939601FB0123
:1002F00080819181A281B38180938F01909390013D
:10030000A0939101B093920185B78F7E85BFAFE82E
:10031000B1E0FD018081883018F48AB11AB802C0BA
:1003200084B114B8319661E0E339F60799F741E0FA
:1003300050E08C91883050F42BB1FA0102C0EE0FDE
:10034000FF1F8A95E2F72E2B2BB90BC025B190E049
:100350000897BA0102C0660F771F8A95E2F7262B2D
:1003600025B9119671E0A339B70719F70895FF92DF
:100370000F931F93DF93CF930F92CDB7DEB760E853
:1003800075E280E090E00E949C0384E891E068E8D8
:1003900071E00E946A0184E291E064E471E044E665
:1003A00051E00E94080381E0898301C00F2D0E9463
:1003B0005300F82E81538930C8F7F016B9F3E9815C
:1003C000E13019F0E23001F510C084E291E064E41C
:1003D00071E044E651E02F2D08E70E943C0288239B
:1003E00011F0F2E0F98318E70FC084E291E064E4D1
:1003F00071E044E651E02F2D0FE60E943C02882375
:1004000011F081E089831FE684E291E064E471E009
:1004100044E651E00E94080384E291E064E471E064
:1004200044E651E0212F0E949602882309F4BECFB2
:1004300084E291E064E471E044E651E00E942B0222
:1004400084E291E064E471E044E651E00E94080334
:10045000E1E0E983ABCFFC01DB018FE580838183A1
:1004600082838C9311968C93119712968C93FA0138
:1004700080838183828308950F93CF93DF93DC0180
:10048000EB01FA01253399F1263368F42233C9F0E0
:10049000233320F4213309F043C00EC02333D1F0BD
:1004A0002433F1F51FC0273361F1273328F12833B6
:1004B00069F12933A9F52FC08C918F3591F50C93F3
:1004C00007C011968C9111978F3559F511960C93A1
:1004D00081E028C012968C9112978F3511F51296F3
:1004E0000C93F6CF88818F35E1F40883F1CF8981B1
:1004F0008F35B9F40983ECCF8A818F3591F40A8363
:10050000E7CF80818F3569F40083E2CF81818F3519
:1005100041F40183DDCF82818F3519F40283D8CF76
:1005200001C080E0DF91CF910F9108951F93CF9389
:10053000DF93FC01DB01EA01122F30816181361764
:1005400029F48281381711F43217C9F14C911196B0
:100550005C911197451739F412968C9112974817B0
:1005600011F4411761F128817981271729F48A81D3
:10057000281711F4211719F1341721F4321711F447
:100580003117E9F0651721F4671711F46117B9F015
:1005900092811296EC919E1729F48A81981711F492
:1005A000911769F0351729F48A81381711F431173A
:1005B00031F0251761F4291751F4211741F480E037
:1005C00091E00E94C703812F0E94BF0317C03F35EF
:1005D000D1F04F35C1F02F35B1F06F35A1F05F3557
:1005E00091F07F3581F09F3571F0EF3561F08A81B0
:1005F0008F3549F08DE091E00E94C7038DE00E94A5
:10060000BF0381E001C080E0DF91CF911F91089589
:10061000CF92DF92EF92FF920F931F938C017B0199
:100620006A018CE70E94BF03F80180810E94BF032A
:100630008CE70E94BF03F80181810E94BF038CE711
:100640000E94BF03F80182810E94BF038CE70E94D1
:10065000BF038DE00E94BF038CE70E94BF03F70138
:1006600080810E94BF038CE70E94BF03F701818154
:100670000E94BF038CE70E94BF03F70182810E94A2
:10068000BF038CE70E94BF038DE00E94BF038CE78D
:100690000E94BF03F60180810E94BF038CE70E9485
:1006A000BF03F60181810E94BF038CE70E94BF0354
:1006B000F60182810E94BF038CE70E94BF038DE098
:1006C0000E94BF038CE191E00E94C7038DE00E946D
:1006D000BF031F910F91FF90EF90DF90CF9008958F
:1006E0001F920F920FB60F9211248F939F93EF9347
:1006F000FF9380918E019091C600E82FF0E0E956BB
:10070000FE4F90838F5F80938E0180918E018F7357
:1007100080938E0180918C01803428F480918C012B
:100720008F5F80938C01FF91EF919F918F910F903C
:100730000FBE0F901F9018959B01AC0180E2809333
:10074000C00088E98093C10086E08093C20084E005
:10075000220F331F441F551F8A95D1F760E074E2C2
:1007600084EF90E00E941D04215030403093C5007A
:100770002093C4007894089580918C010895982F57
:100780008091C00085FFFCCF9093C6000895FC01C6
:1007900007C08091C00085FFFCCF9093C6003196C2
:1007A00090819923B1F708959C01F9012F5F3F4F84
:1007B0009491992339F08091C00085FFFCCF9093EC
:1007C000C600F3CF089580918C01882311F4EFEFD8
:1007D00014C080918D01E82FF0E0E956FE4FE081D2
:1007E0008F5F80938D0180918D018F7380938D0138
:1007F00080918C01815080938C018E2F0895EF920F
:10080000FF921F93CF93DF937C0110E006C00E94FC
:10081000E303CE0DDF1D88831F5F80918C01C12F04
:10082000D0E08823A1F7CE0DDF1D1882812FDF9144
:10083000CF911F91FF90EF900895A1E21A2EAA1B6D
:10084000BB1BFD010DC0AA1FBB1FEE1FFF1FA21780
:10085000B307E407F50720F0A21BB30BE40BF50B7D
:10086000661F771F881F991F1A9469F76095709506
:10087000809590959B01AC01BD01CF010895F8943E
:02088000FFCFA8
:10088200506F6265646E696B206A6520004E656D0B
:100892006120706F6265646E696B61002D2D2D2D74
:1008A2002D2D2D005F5F5F000000000000000000A2
:1008B2000000000000000000000000000000000036
:1008C200000000005F5F5F00000000000000000009
:1008D2000000000000000000000000000000000016
:1008E200000000005F5F5F000000000000000000E9
:1008F20000000000000000000000000000000000F6
:0C090200000000000B0A090807060504AD
:00000001FF
