:100000000C9434000C9451000C9451000C94510049
:100010000C9451000C9451000C9451000C9451001C
:100020000C9451000C9451000C9451000C9451000C
:100030000C9451000C9451000C94F6000C94510057
:100040000C9451000C9451000C94A2000C9451009B
:100050000C9451000C9451000C9451000C945100DC
:100060000C9451000C94510011241FBECFEFD8E026
:10007000DEBFCDBF11E0A0E0B1E0E0EDFAE002C0EC
:1000800005900D92AC34B107D9F711E0ACE4B1E0C2
:1000900001C01D92A139B107E1F70E9453000C94F1
:1000A00066050C940000AF92BF92CF92DF92EF9260
:1000B000FF920F931F93DF93CF93CDB7DEB7C0545A
:1000C000D0400FB6F894DEBF0FBECDBF60E875E23A
:1000D00080E090E00E94CE0080E9A82E81E0B82E5A
:1000E0006E010894C11CD11C80E091E00E941801AF
:1000F0000E940D018823E1F388EE93E0F50131972A
:10010000F1F70197D9F70E947B017B018C01C601B1
:100110000E94500188E191E00E941801C801B701D6
:100120000E94000286E291E00E94180188E291E0BC
:100130000E941801C6010E94180186E491E00E9405
:100140001801D2CF1F920F920FB60F9211248F93E6
:100150009F93EF93FF9380914E019091C600E82FFB
:10016000F0E0EF5AFE4F90838F5F80934E018091B5
:100170004E018F7380934E0180914C01803428F49E
:1001800080914C018F5F80934C01FF91EF919F9183
:100190008F910F900FBE0F901F9018959B01AC018F
:1001A00080E28093C00088E98093C10086E080935C
:1001B000C20084E0220F331F441F551F8A95D1F7D8
:1001C00060E074E284EF90E00E946C0221503040C5
:1001D0003093C5002093C40092E094BD83E085BDB8
:1001E00089EF87BD90936E00789408951F920F92C7
:1001F0000FB60F9211248F939F9380914F0190918E
:10020000500101969093500180934F019F918F91DF
:100210000F900FBE0F901F90189580914C0108957C
:10022000982F8091C00085FFFCCF9093C600089561
:10023000FC0107C08091C00085FFFCCF9093C600F1
:10024000319690819923B1F708959C01F9012F5FB0
:100250003F4F9491992339F08091C00085FFFCCFE6
:100260009093C600F3CF089580914C01882311F438
:10027000EFEF14C080914D01E82FF0E0EF5AFE4FF0
:10028000E0818F5F80934D0180914D018F7380934A
:100290004D0180914C01815080934C018E2F089527
:1002A000EF92FF921F93CF93DF937C0110E006C083
:1002B0000E943401CE0DDF1D88831F5F80914C01A9
:1002C000C12FD0E08823A1F7CE0DDF1D1882812F2A
:1002D000DF91CF911F91FF90EF90089580914C0195
:1002E000882311F48FEF0895E0914D01F0E0EF5A6B
:1002F000FE4F80810895BF92CF92DF92EF92FF92DE
:100300000F931F931092500110924F010FC00E9443
:100310003401282F80914F0190915001805D9740CA
:1003200029F420E030E040E050E060C080914C01D2
:10033000882369F3E0914D01F0E0EF5AFE4F808190
:1003400080332CF380914C01882341F0E0914D01E2
:10035000F0E0EF5AFE4F80818A33CCF62D3219F44B
:10036000BB24BA9402C0BB24B394CC24DD24760110
:1003700019C00E943401082FC701B6012AE030E0FD
:1003800040E050E00E944D02112707FD10950053F8
:1003900010406801EE24D7FCE094FE2CC60ED71E58
:1003A000E81EF91E80914C018823A1F0E0914D01D7
:1003B000F0E0EF5AFE4F8081803364F080914C0171
:1003C0008823B9F2E0914D01F0E0EF5AFE4F8081B1
:1003D0008A337CF22B2D332727FD3095432F532F63
:1003E000C701B6010E944D029B01AC01B901CA01CF
:1003F0001F910F91FF90EF90DF90CF90BF900895E5
:100400000F931F93DF93CF93CDB7DEB7C054D04087
:100410000FB6F894DEBF0FBECDBF2DB73EB7285044
:1004200030400FB6F8943EBF0FBE2DBFEDB7FEB7FC
:1004300031968E010F5F1F4FADB7BEB712961C935A
:100440000E93119729E431E033832283648375830B
:10045000868397830E948E02F8012DB73EB7285FEE
:100460003F4F0FB6F8943EBF0FBE2DBF07C080911F
:10047000C00085FFFCCF9093C600319690819923F0
:10048000B1F7C05CDF4F0FB6F894DEBF0FBECDBF33
:10049000CF91DF911F910F910895629FD001739FBB
:1004A000F001829FE00DF11D649FE00DF11D929F10
:1004B000F00D839FF00D749FF00D659FF00D99274F
:1004C000729FB00DE11DF91F639FB00DE11DF91F73
:1004D000BD01CF0111240895A1E21A2EAA1BBB1B56
:1004E000FD010DC0AA1FBB1FEE1FFF1FA217B30700
:1004F000E407F50720F0A21BB30BE40BF50B661F16
:10050000771F881F991F1A9469F7609570958095D9
:1005100090959B01AC01BD01CF010895AEE0B0E024
:10052000E4E9F2E00C943D050D891E8986E08C8398
:100530001A8309838FEF9FE79E838D839E01275E39
:100540003F4FCE0101966F89788DA9010E94B202BA
:100550002F813885020F131FF80110822E96E4E0D8
:100560000C945905ABE0B0E0E8EBF2E00C942F05F9
:100570003C012B015A01FC0117821682838181FD07
:1005800003C06FEF7FEFC6C19AE0892E1E01089469
:10059000211C311CF3012381F20123FD859123FFEE
:1005A00081912F01882309F4B2C1853239F423FDEA
:1005B000859123FF81912F01853229F490E0B301C9
:1005C0000E94A504E7CF982FFF24EE249924FFE191
:1005D000FF15D0F09B3269F09C3228F4903259F02C
:1005E000933291F40EC09D3249F0903369F441E0AA
:1005F00024C052E0F52A84E0F82A28C098E0F92ABD
:1006000025C0E0E1FE2A22C0F7FC29C0892F8053D3
:100610008A3070F4F6FE05C0989C902C1124980E38
:1006200015C0E89CE02C1124E80EF0E2FF2A0EC071
:100630009E3229F4F6FC6BC140E4F42A07C09C36D4
:1006400019F450E8F52A02C0983649F4F20123FD66
:10065000959123FF91912F01992309F0B8CF892F0C
:100660008554833018F08052833038F444E050E0F1
:10067000A40EB51E5FE359830FC0933631F0933754
:1006800079F0933509F056C020C0F5018081898347
:1006900042E050E0A40EB51E610101E010E012C07E
:1006A000F501C080D180F6FC03C06FEF7FEF02C080
:1006B000692D70E042E050E0A40EB51EC6010E9414
:1006C0009A048C015FE7F52214C0F501C080D18047
:1006D000F6FC03C06FEF7FEF02C0692D70E042E0CF
:1006E00050E0A40EB51EC6010E948F048C0150E894
:1006F000F52AF3FE07C01AC080E290E0B3010E9421
:10070000A504EA948E2D90E008171907A8F30EC0EF
:10071000F601F7FC8591F7FE81916F0190E0B3013E
:100720000E94A504E110EA94015010400115110542
:1007300079F7EAC0943611F0993669F5F7FE08C0EA
:10074000F501208131814281538184E090E00AC02B
:10075000F501808191819C01442737FD4095542FFC
:1007600082E090E0A80EB91E9FE6F92257FF09C06B
:1007700050954095309521953F4F4F4F5F4FE0E8A2
:10078000FE2ACA01B901A1012AE030E00E94D10489
:10079000D82ED21840C0953729F41F2D1F7E2AE08D
:1007A00030E01DC01F2D197F9F3661F0903720F477
:1007B000983509F0ACC00FC0903739F0983709F080
:1007C000A6C004C028E030E00AC0106114FD146027
:1007D00020E130E004C014FD166020E132E017FF94
:1007E00008C0F501608171818281938144E050E00D
:1007F00008C0F50180819181BC0180E090E042E079
:1008000050E0A40EB51EA1010E94D104D82ED2182A
:100810008FE7F82EF122F6FE0BC05EEFF522D91419
:1008200038F4F4FE07C0F2FC05C08FEEF82202C0D7
:100830001D2D01C0192DF4FE0DC0FE01ED0DF11DA1
:100840008081803319F499EEF92208C01F5FF2FE0F
:1008500005C003C08F2D867809F01F5F0F2DF3FCB4
:1008600014C0F0FE0FC01E1510F09D2C0BC09D2C67
:100870009E0C911A1E2D06C080E290E0B3010E94EA
:10088000A5041F5F1E15C0F304C01E1510F4E11A65
:1008900001C0EE2404FF0FC080E390E0B3010E948A
:1008A000A50402FF1DC001FD03C088E790E00EC053
:1008B00088E590E00BC0802F867891F001FF02C0A0
:1008C0008BE201C080E2F7FC8DE290E0B3010E9470
:1008D000A50406C080E390E0B3010E94A5049A94A9
:1008E000D914C0F3DA94F101ED0DF11D808190E08F
:1008F000B3010E94A504DD20A9F706C080E290E0C4
:10090000B3010E94A504EA94EE20C1F743CEF3019F
:1009100066817781CB012B96E2E10C944B05FC01BB
:100920000590615070400110D8F7809590958E0F1A
:100930009F1F0895FC016150704001900110D8F78D
:10094000809590958E0F9F1F08950F931F93CF93BF
:10095000DF938C01EB018B8181FF1BC082FF0DC0F7
:100960002E813F818C819D812817390764F4E881AD
:10097000F9810193F983E88306C0E885F985802F22
:100980000995892B31F48E819F8101969F838E83F7
:1009900002C00FEF1FEFC801DF91CF911F910F91A0
:1009A0000895FA01AA27283051F1203181F1E89405
:1009B0006F936E7F6E5F7F4F8F4F9F4FAF4FB1E052
:1009C0003ED0B4E03CD0670F781F891F9A1FA11D4D
:1009D000680F791F8A1F911DA11D6A0F711D811D4E
:1009E000911DA11D20D009F468943F912AE0269F13
:1009F00011243019305D3193DEF6CF010895462F72
:100A00004770405D4193B3E00FD0C9F7F6CF462F52
:100A10004F70405D4A3318F0495D31FD40524193BB
:100A200002D0A9F7EACFB4E0A69597958795779578
:100A30006795BA95C9F700976105710508959B01FF
:100A4000AC010A2E06945795479537952795BA9588
:100A5000C9F7620F731F841F951FA01D08952F9261
:100A60003F924F925F926F927F928F929F92AF923E
:100A7000BF92CF92DF92EF92FF920F931F93CF938B
:100A8000DF93CDB7DEB7CA1BDB0B0FB6F894DEBF22
:100A90000FBECDBF09942A88398848885F846E8448
:100AA0007D848C849B84AA84B984C884DF80EE8092
:100AB000FD800C811B81AA81B981CE0FD11D0FB69B
:100AC000F894DEBF0FBECDBFED010895F894FFCFBF
:100AD000556E6573697465206E656B692063656F1B
:100AE0002062726F6A3A0D00556E6574206A652047
:100AF00062726F6A20000D005072617A6E6A656ED4
:100B00006A65206F737461746B61206261666572DF
:0C0B1000612E2E2E20000D0D002564002B
:00000001FF
